{
  "_format": "hh-sol-artifact-1",
  "contractName": "DaoCredit",
  "sourceName": "contracts/DaoCredit.sol",
  "abi": [
    {
      "inputs": [],
      "stateMutability": "nonpayable",
      "type": "constructor"
    },
    {
      "anonymous": false,
      "inputs": [
        {
          "indexed": true,
          "internalType": "address",
          "name": "owner",
          "type": "address"
        },
        {
          "indexed": true,
          "internalType": "address",
          "name": "spender",
          "type": "address"
        },
        {
          "indexed": false,
          "internalType": "uint256",
          "name": "value",
          "type": "uint256"
        }
      ],
      "name": "Approval",
      "type": "event"
    },
    {
      "anonymous": false,
      "inputs": [
        {
          "indexed": false,
          "internalType": "address",
          "name": "member",
          "type": "address"
        },
        {
          "indexed": false,
          "internalType": "uint256",
          "name": "votenum",
          "type": "uint256"
        }
      ],
      "name": "AttendTransfer",
      "type": "event"
    },
    {
      "anonymous": false,
      "inputs": [
        {
          "indexed": true,
          "internalType": "address",
          "name": "_from",
          "type": "address"
        },
        {
          "indexed": true,
          "internalType": "address",
          "name": "_to",
          "type": "address"
        }
      ],
      "name": "OwnershipTransferred",
      "type": "event"
    },
    {
      "anonymous": false,
      "inputs": [
        {
          "indexed": false,
          "internalType": "address",
          "name": "member",
          "type": "address"
        },
        {
          "indexed": false,
          "internalType": "uint256",
          "name": "seccode",
          "type": "uint256"
        }
      ],
      "name": "ProposeCode",
      "type": "event"
    },
    {
      "anonymous": false,
      "inputs": [
        {
          "indexed": false,
          "internalType": "address",
          "name": "member",
          "type": "address"
        },
        {
          "indexed": false,
          "internalType": "uint256",
          "name": "seccode",
          "type": "uint256"
        }
      ],
      "name": "RegisterCode",
      "type": "event"
    },
    {
      "anonymous": false,
      "inputs": [
        {
          "indexed": true,
          "internalType": "address",
          "name": "from",
          "type": "address"
        },
        {
          "indexed": true,
          "internalType": "address",
          "name": "to",
          "type": "address"
        },
        {
          "indexed": false,
          "internalType": "uint256",
          "name": "value",
          "type": "uint256"
        }
      ],
      "name": "Transfer",
      "type": "event"
    },
    {
      "anonymous": false,
      "inputs": [
        {
          "indexed": false,
          "internalType": "address",
          "name": "member",
          "type": "address"
        },
        {
          "indexed": false,
          "internalType": "uint256",
          "name": "votenum",
          "type": "uint256"
        }
      ],
      "name": "VoteMajority",
      "type": "event"
    },
    {
      "inputs": [
        {
          "internalType": "address",
          "name": "accountSync",
          "type": "address"
        }
      ],
      "name": "RegisterMintSync",
      "outputs": [
        {
          "internalType": "uint256",
          "name": "",
          "type": "uint256"
        }
      ],
      "stateMutability": "nonpayable",
      "type": "function"
    },
    {
      "inputs": [
        {
          "internalType": "address",
          "name": "accountSync",
          "type": "address"
        }
      ],
      "name": "RegisterSpawnSync",
      "outputs": [
        {
          "internalType": "uint256",
          "name": "",
          "type": "uint256"
        }
      ],
      "stateMutability": "nonpayable",
      "type": "function"
    },
    {
      "inputs": [],
      "name": "acceptOwnership",
      "outputs": [],
      "stateMutability": "nonpayable",
      "type": "function"
    },
    {
      "inputs": [],
      "name": "addSupply",
      "outputs": [],
      "stateMutability": "nonpayable",
      "type": "function"
    },
    {
      "inputs": [
        {
          "internalType": "address",
          "name": "owner",
          "type": "address"
        },
        {
          "internalType": "address",
          "name": "spender",
          "type": "address"
        }
      ],
      "name": "allowance",
      "outputs": [
        {
          "internalType": "uint256",
          "name": "",
          "type": "uint256"
        }
      ],
      "stateMutability": "view",
      "type": "function"
    },
    {
      "inputs": [
        {
          "internalType": "address",
          "name": "spender",
          "type": "address"
        },
        {
          "internalType": "uint256",
          "name": "amount",
          "type": "uint256"
        }
      ],
      "name": "approve",
      "outputs": [
        {
          "internalType": "bool",
          "name": "",
          "type": "bool"
        }
      ],
      "stateMutability": "nonpayable",
      "type": "function"
    },
    {
      "inputs": [
        {
          "internalType": "uint256",
          "name": "eventCode",
          "type": "uint256"
        }
      ],
      "name": "attend_simple",
      "outputs": [
        {
          "internalType": "uint256",
          "name": "",
          "type": "uint256"
        }
      ],
      "stateMutability": "nonpayable",
      "type": "function"
    },
    {
      "inputs": [
        {
          "internalType": "address",
          "name": "account",
          "type": "address"
        }
      ],
      "name": "balanceOf",
      "outputs": [
        {
          "internalType": "uint256",
          "name": "",
          "type": "uint256"
        }
      ],
      "stateMutability": "view",
      "type": "function"
    },
    {
      "inputs": [
        {
          "internalType": "uint256",
          "name": "amount",
          "type": "uint256"
        }
      ],
      "name": "burn",
      "outputs": [],
      "stateMutability": "nonpayable",
      "type": "function"
    },
    {
      "inputs": [
        {
          "internalType": "address",
          "name": "account",
          "type": "address"
        },
        {
          "internalType": "uint256",
          "name": "amount",
          "type": "uint256"
        }
      ],
      "name": "burnFrom",
      "outputs": [],
      "stateMutability": "nonpayable",
      "type": "function"
    },
    {
      "inputs": [
        {
          "internalType": "address",
          "name": "accountWant",
          "type": "address"
        },
        {
          "internalType": "uint256",
          "name": "code",
          "type": "uint256"
        },
        {
          "internalType": "address",
          "name": "accountBurn",
          "type": "address"
        },
        {
          "internalType": "uint256",
          "name": "amount",
          "type": "uint256"
        }
      ],
      "name": "burnMintSync",
      "outputs": [
        {
          "internalType": "uint256",
          "name": "",
          "type": "uint256"
        }
      ],
      "stateMutability": "nonpayable",
      "type": "function"
    },
    {
      "inputs": [
        {
          "internalType": "address",
          "name": "accountWant",
          "type": "address"
        },
        {
          "internalType": "uint256",
          "name": "code",
          "type": "uint256"
        },
        {
          "internalType": "address",
          "name": "accountBurn",
          "type": "address"
        },
        {
          "internalType": "uint256",
          "name": "amount",
          "type": "uint256"
        }
      ],
      "name": "burnSpawnSync",
      "outputs": [
        {
          "internalType": "uint256",
          "name": "",
          "type": "uint256"
        }
      ],
      "stateMutability": "nonpayable",
      "type": "function"
    },
    {
      "inputs": [],
      "name": "decimals",
      "outputs": [
        {
          "internalType": "uint8",
          "name": "",
          "type": "uint8"
        }
      ],
      "stateMutability": "view",
      "type": "function"
    },
    {
      "inputs": [
        {
          "internalType": "address",
          "name": "spender",
          "type": "address"
        },
        {
          "internalType": "uint256",
          "name": "subtractedValue",
          "type": "uint256"
        }
      ],
      "name": "decreaseAllowance",
      "outputs": [
        {
          "internalType": "bool",
          "name": "",
          "type": "bool"
        }
      ],
      "stateMutability": "nonpayable",
      "type": "function"
    },
    {
      "inputs": [],
      "name": "getCostPropose",
      "outputs": [
        {
          "internalType": "uint256",
          "name": "",
          "type": "uint256"
        }
      ],
      "stateMutability": "view",
      "type": "function"
    },
    {
      "inputs": [],
      "name": "getCurEventAddress",
      "outputs": [
        {
          "internalType": "string",
          "name": "event_address",
          "type": "string"
        }
      ],
      "stateMutability": "view",
      "type": "function"
    },
    {
      "inputs": [],
      "name": "getEventIndex",
      "outputs": [
        {
          "internalType": "uint256",
          "name": "",
          "type": "uint256"
        }
      ],
      "stateMutability": "view",
      "type": "function"
    },
    {
      "inputs": [
        {
          "internalType": "address",
          "name": "_add",
          "type": "address"
        }
      ],
      "name": "getMemberExecution",
      "outputs": [
        {
          "internalType": "uint256",
          "name": "",
          "type": "uint256"
        }
      ],
      "stateMutability": "view",
      "type": "function"
    },
    {
      "inputs": [
        {
          "internalType": "address",
          "name": "_add",
          "type": "address"
        }
      ],
      "name": "getMemberParticipation",
      "outputs": [
        {
          "internalType": "uint256",
          "name": "",
          "type": "uint256"
        }
      ],
      "stateMutability": "view",
      "type": "function"
    },
    {
      "inputs": [
        {
          "internalType": "address",
          "name": "_add",
          "type": "address"
        }
      ],
      "name": "getMemberPopularization",
      "outputs": [
        {
          "internalType": "uint256",
          "name": "",
          "type": "uint256"
        }
      ],
      "stateMutability": "view",
      "type": "function"
    },
    {
      "inputs": [],
      "name": "getVoteMajority",
      "outputs": [
        {
          "internalType": "uint256",
          "name": "",
          "type": "uint256"
        }
      ],
      "stateMutability": "view",
      "type": "function"
    },
    {
      "inputs": [
        {
          "internalType": "address",
          "name": "spender",
          "type": "address"
        },
        {
          "internalType": "uint256",
          "name": "addedValue",
          "type": "uint256"
        }
      ],
      "name": "increaseAllowance",
      "outputs": [
        {
          "internalType": "bool",
          "name": "",
          "type": "bool"
        }
      ],
      "stateMutability": "nonpayable",
      "type": "function"
    },
    {
      "inputs": [],
      "name": "initialSupply",
      "outputs": [
        {
          "internalType": "uint256",
          "name": "",
          "type": "uint256"
        }
      ],
      "stateMutability": "view",
      "type": "function"
    },
    {
      "inputs": [],
      "name": "isEventApproved",
      "outputs": [
        {
          "internalType": "bool",
          "name": "",
          "type": "bool"
        }
      ],
      "stateMutability": "view",
      "type": "function"
    },
    {
      "inputs": [],
      "name": "isEventOwner",
      "outputs": [
        {
          "internalType": "bool",
          "name": "",
          "type": "bool"
        }
      ],
      "stateMutability": "view",
      "type": "function"
    },
    {
      "inputs": [],
      "name": "isNftMember",
      "outputs": [
        {
          "internalType": "bool",
          "name": "",
          "type": "bool"
        }
      ],
      "stateMutability": "view",
      "type": "function"
    },
    {
      "inputs": [],
      "name": "memberAmount",
      "outputs": [
        {
          "internalType": "uint256",
          "name": "",
          "type": "uint256"
        }
      ],
      "stateMutability": "view",
      "type": "function"
    },
    {
      "inputs": [],
      "name": "name",
      "outputs": [
        {
          "internalType": "string",
          "name": "",
          "type": "string"
        }
      ],
      "stateMutability": "view",
      "type": "function"
    },
    {
      "inputs": [],
      "name": "newOwner",
      "outputs": [
        {
          "internalType": "address",
          "name": "",
          "type": "address"
        }
      ],
      "stateMutability": "view",
      "type": "function"
    },
    {
      "inputs": [],
      "name": "owner",
      "outputs": [
        {
          "internalType": "address",
          "name": "",
          "type": "address"
        }
      ],
      "stateMutability": "view",
      "type": "function"
    },
    {
      "inputs": [
        {
          "internalType": "string",
          "name": "event_address",
          "type": "string"
        },
        {
          "internalType": "uint256",
          "name": "participation_leader",
          "type": "uint256"
        },
        {
          "internalType": "uint256",
          "name": "execution_leader",
          "type": "uint256"
        },
        {
          "internalType": "uint256",
          "name": "popularization_leader",
          "type": "uint256"
        },
        {
          "internalType": "uint256",
          "name": "participation_attender",
          "type": "uint256"
        },
        {
          "internalType": "uint256",
          "name": "execution_attender",
          "type": "uint256"
        },
        {
          "internalType": "uint256",
          "name": "popularization_attender",
          "type": "uint256"
        }
      ],
      "name": "propose_critical",
      "outputs": [
        {
          "internalType": "uint256",
          "name": "",
          "type": "uint256"
        }
      ],
      "stateMutability": "nonpayable",
      "type": "function"
    },
    {
      "inputs": [
        {
          "internalType": "string",
          "name": "event_address",
          "type": "string"
        },
        {
          "internalType": "uint256",
          "name": "participation_leader",
          "type": "uint256"
        },
        {
          "internalType": "uint256",
          "name": "execution_leader",
          "type": "uint256"
        },
        {
          "internalType": "uint256",
          "name": "popularization_leader",
          "type": "uint256"
        },
        {
          "internalType": "uint256",
          "name": "participation_attender",
          "type": "uint256"
        },
        {
          "internalType": "uint256",
          "name": "execution_attender",
          "type": "uint256"
        },
        {
          "internalType": "uint256",
          "name": "popularization_attender",
          "type": "uint256"
        }
      ],
      "name": "propose_simple",
      "outputs": [
        {
          "internalType": "uint256",
          "name": "",
          "type": "uint256"
        }
      ],
      "stateMutability": "nonpayable",
      "type": "function"
    },
    {
      "inputs": [
        {
          "internalType": "uint256",
          "name": "newSupplyIncrement",
          "type": "uint256"
        }
      ],
      "name": "setSupplyIncrement",
      "outputs": [
        {
          "internalType": "uint256",
          "name": "",
          "type": "uint256"
        }
      ],
      "stateMutability": "nonpayable",
      "type": "function"
    },
    {
      "inputs": [],
      "name": "supplyIncrement",
      "outputs": [
        {
          "internalType": "uint256",
          "name": "",
          "type": "uint256"
        }
      ],
      "stateMutability": "view",
      "type": "function"
    },
    {
      "inputs": [],
      "name": "symbol",
      "outputs": [
        {
          "internalType": "string",
          "name": "",
          "type": "string"
        }
      ],
      "stateMutability": "view",
      "type": "function"
    },
    {
      "inputs": [
        {
          "internalType": "uint256",
          "name": "code",
          "type": "uint256"
        },
        {
          "internalType": "address",
          "name": "account",
          "type": "address"
        }
      ],
      "name": "syncMintMember",
      "outputs": [
        {
          "internalType": "bool",
          "name": "",
          "type": "bool"
        }
      ],
      "stateMutability": "nonpayable",
      "type": "function"
    },
    {
      "inputs": [
        {
          "internalType": "uint256",
          "name": "code",
          "type": "uint256"
        },
        {
          "internalType": "address",
          "name": "account",
          "type": "address"
        }
      ],
      "name": "syncSpawnMember",
      "outputs": [
        {
          "internalType": "bool",
          "name": "",
          "type": "bool"
        }
      ],
      "stateMutability": "nonpayable",
      "type": "function"
    },
    {
      "inputs": [],
      "name": "totalSupply",
      "outputs": [
        {
          "internalType": "uint256",
          "name": "",
          "type": "uint256"
        }
      ],
      "stateMutability": "view",
      "type": "function"
    },
    {
      "inputs": [
        {
          "internalType": "address",
          "name": "to",
          "type": "address"
        },
        {
          "internalType": "uint256",
          "name": "amount",
          "type": "uint256"
        }
      ],
      "name": "transfer",
      "outputs": [
        {
          "internalType": "bool",
          "name": "",
          "type": "bool"
        }
      ],
      "stateMutability": "nonpayable",
      "type": "function"
    },
    {
      "inputs": [
        {
          "internalType": "address",
          "name": "from",
          "type": "address"
        },
        {
          "internalType": "address",
          "name": "to",
          "type": "address"
        },
        {
          "internalType": "uint256",
          "name": "amount",
          "type": "uint256"
        }
      ],
      "name": "transferFrom",
      "outputs": [
        {
          "internalType": "bool",
          "name": "",
          "type": "bool"
        }
      ],
      "stateMutability": "nonpayable",
      "type": "function"
    },
    {
      "inputs": [
        {
          "internalType": "address",
          "name": "_newOwner",
          "type": "address"
        }
      ],
      "name": "transferOwnership",
      "outputs": [],
      "stateMutability": "nonpayable",
      "type": "function"
    },
    {
      "inputs": [
        {
          "internalType": "uint256",
          "name": "newAwardAttender",
          "type": "uint256"
        }
      ],
      "name": "upgradeAwardAttender",
      "outputs": [],
      "stateMutability": "nonpayable",
      "type": "function"
    },
    {
      "inputs": [
        {
          "internalType": "uint256",
          "name": "newAwardLeader",
          "type": "uint256"
        }
      ],
      "name": "upgradeAwardLeader",
      "outputs": [],
      "stateMutability": "nonpayable",
      "type": "function"
    },
    {
      "inputs": [
        {
          "internalType": "uint256",
          "name": "newCostPropose",
          "type": "uint256"
        }
      ],
      "name": "upgradeCostPropose",
      "outputs": [],
      "stateMutability": "nonpayable",
      "type": "function"
    },
    {
      "inputs": [
        {
          "internalType": "uint256",
          "name": "newCostVote",
          "type": "uint256"
        }
      ],
      "name": "upgradeCostVote",
      "outputs": [],
      "stateMutability": "nonpayable",
      "type": "function"
    },
    {
      "inputs": [
        {
          "internalType": "uint256",
          "name": "newVoteThreshold",
          "type": "uint256"
        }
      ],
      "name": "upgradeVoteThreshold",
      "outputs": [],
      "stateMutability": "nonpayable",
      "type": "function"
    },
    {
      "inputs": [
        {
          "internalType": "bool",
          "name": "agree",
          "type": "bool"
        }
      ],
      "name": "vote_critical",
      "outputs": [
        {
          "internalType": "uint256",
          "name": "",
          "type": "uint256"
        }
      ],
      "stateMutability": "nonpayable",
      "type": "function"
    },
    {
      "inputs": [
        {
          "internalType": "bool",
          "name": "agree",
          "type": "bool"
        }
      ],
      "name": "vote_simple",
      "outputs": [
        {
          "internalType": "uint256",
          "name": "",
          "type": "uint256"
        }
      ],
      "stateMutability": "nonpayable",
      "type": "function"
    },
    {
      "inputs": [
        {
          "internalType": "address",
          "name": "_to",
          "type": "address"
        }
      ],
      "name": "weightOfCredit",
      "outputs": [
        {
          "internalType": "uint256",
          "name": "",
          "type": "uint256"
        }
      ],
      "stateMutability": "view",
      "type": "function"
    }
  ],
  "bytecode": "0x60806040523480156200001157600080fd5b50336000806101000a81548173ffffffffffffffffffffffffffffffffffffffff021916908373ffffffffffffffffffffffffffffffffffffffff160217905550336000806101000a81548173ffffffffffffffffffffffffffffffffffffffff021916908373ffffffffffffffffffffffffffffffffffffffff1602179055506040518060400160405280600881526020017f416269546f6b656e00000000000000000000000000000000000000000000000081525060079080519060200190620000df929190620003f2565b506040518060400160405280600381526020017f4142490000000000000000000000000000000000000000000000000000000000815250600890805190602001906200012d929190620003f2565b5069d3c21bcecceda10000006005819055506200017360008054906101000a900473ffffffffffffffffffffffffffffffffffffffff166005546200026e60201b60201c565b6001601860008060009054906101000a900473ffffffffffffffffffffffffffffffffffffffff1673ffffffffffffffffffffffffffffffffffffffff1673ffffffffffffffffffffffffffffffffffffffff16815260200190815260200160002060000160006101000a81548160ff02191690831515021790555030601960006101000a81548173ffffffffffffffffffffffffffffffffffffffff021916908373ffffffffffffffffffffffffffffffffffffffff160217905550600a601360000181905550600a60136001018190555061012c601360020181905550603260136003018190555060036013600401819055506200064e565b600073ffffffffffffffffffffffffffffffffffffffff168273ffffffffffffffffffffffffffffffffffffffff161415620002e1576040517f08c379a0000000000000000000000000000000000000000000000000000000008152600401620002d890620004da565b60405180910390fd5b620002f560008383620003e860201b60201c565b80600460008282546200030991906200052a565b9250508190555080600260008473ffffffffffffffffffffffffffffffffffffffff1673ffffffffffffffffffffffffffffffffffffffff16815260200190815260200160002060008282546200036191906200052a565b925050819055508173ffffffffffffffffffffffffffffffffffffffff16600073ffffffffffffffffffffffffffffffffffffffff167fddf252ad1be2c89b69c2b068fc378daa952ba7f163c4a11628f55a4df523b3ef83604051620003c89190620004fc565b60405180910390a3620003e460008383620003ed60201b60201c565b5050565b505050565b505050565b828054620004009062000591565b90600052602060002090601f01602090048101928262000424576000855562000470565b82601f106200043f57805160ff191683800117855562000470565b8280016001018555821562000470579182015b828111156200046f57825182559160200191906001019062000452565b5b5090506200047f919062000483565b5090565b5b808211156200049e57600081600090555060010162000484565b5090565b6000620004b1601f8362000519565b9150620004be8262000625565b602082019050919050565b620004d48162000587565b82525050565b60006020820190508181036000830152620004f581620004a2565b9050919050565b6000602082019050620005136000830184620004c9565b92915050565b600082825260208201905092915050565b6000620005378262000587565b9150620005448362000587565b9250827fffffffffffffffffffffffffffffffffffffffffffffffffffffffffffffffff038211156200057c576200057b620005c7565b5b828201905092915050565b6000819050919050565b60006002820490506001821680620005aa57607f821691505b60208210811415620005c157620005c0620005f6565b5b50919050565b7f4e487b7100000000000000000000000000000000000000000000000000000000600052601160045260246000fd5b7f4e487b7100000000000000000000000000000000000000000000000000000000600052602260045260246000fd5b7f45524332303a206d696e7420746f20746865207a65726f206164647265737300600082015250565b615e27806200065e6000396000f3fe608060405234801561001057600080fd5b50600436106102bb5760003560e01c806379cc679011610182578063d6fe8fad116100e9578063ea3fe69e116100a2578063f0b3a9851161007c578063f0b3a98514610970578063f2fde38b146109a0578063f4f64ad0146109bc578063f82923da146109da576102bb565b8063ea3fe69e146108f2578063eae58b7a14610922578063eeed4e6b14610952576102bb565b8063d6fe8fad1461081c578063d777b3911461084c578063dbbe642b1461086a578063dbe1644614610888578063dd62ed3e146108a6578063e2edb398146108d6576102bb565b8063a457c2d71161013b578063a457c2d71461070e578063a875ffdb1461073e578063a9059cbb1461076e578063c0d7cd761461079e578063c25ea1b2146107ce578063d4ee1d90146107fe576102bb565b806379cc67901461064c5780637d5aa9a6146106685780638da5cb5b1461069857806394340bc0146106b657806395d89b41146106d45780639aa5371b146106f2576102bb565b80633f6fcd0c116102265780636a82d9e1116101df5780636a82d9e1146105525780636d1020da1461058257806370a08231146105b257806372d5c6f5146105e257806378d68e2a1461061257806379ba509714610642576102bb565b80633f6fcd0c1461047e57806342966c681461049c57806349945e9a146104b85780634b8b1371146104d65780634d5f5e9514610506578063638c4aa914610522576102bb565b806323b872dd1161027857806323b872dd14610394578063313ce567146103c4578063340dadc8146103e2578063371105e214610400578063378dc3dc14610430578063395093511461044e576102bb565b806306fdde03146102c057806307a6b417146102de578063095ea7b3146102fa5780630cf086e91461032a57806318160ddd146103465780631f14a6fd14610364575b600080fd5b6102c86109e4565b6040516102d59190614e55565b60405180910390f35b6102f860048036038101906102f391906148df565b610a76565b005b610314600480360381019061030f9190614761565b610adb565b6040516103219190614e3a565b60405180910390f35b610344600480360381019061033f91906148df565b610afe565b005b61034e610b63565b60405161035b9190615257565b60405180910390f35b61037e600480360381019061037991906146ad565b610b6d565b60405161038b9190615257565b60405180910390f35b6103ae60048036038101906103a99190614712565b610bb9565b6040516103bb9190614e3a565b60405180910390f35b6103cc610be8565b6040516103d99190615272565b60405180910390f35b6103ea610bf1565b6040516103f79190614e3a565b60405180910390f35b61041a6004803603810190610415919061479d565b610c4b565b6040516104279190615257565b60405180910390f35b610438610f08565b6040516104459190615257565b60405180910390f35b61046860048036038101906104639190614761565b610f0e565b6040516104759190614e3a565b60405180910390f35b610486610f45565b6040516104939190615257565b60405180910390f35b6104b660048036038101906104b191906148df565b610f4f565b005b6104c0610f63565b6040516104cd9190615257565b60405180910390f35b6104f060048036038101906104eb91906146ad565b610f91565b6040516104fd9190615257565b60405180910390f35b610520600480360381019061051b91906148df565b611194565b005b61053c600480360381019061053791906146ad565b6111f9565b6040516105499190615257565b60405180910390f35b61056c6004803603810190610567919061479d565b611245565b6040516105799190615257565b60405180910390f35b61059c600480360381019061059791906148df565b611502565b6040516105a99190615257565b60405180910390f35b6105cc60048036038101906105c791906146ad565b61156e565b6040516105d99190615257565b60405180910390f35b6105fc60048036038101906105f791906146ad565b6115b7565b6040516106099190615257565b60405180910390f35b61062c60048036038101906106279190614829565b611603565b6040516106399190615257565b60405180910390f35b61064a611a61565b005b61066660048036038101906106619190614761565b611bfd565b005b610682600480360381019061067d91906146ad565b611c1d565b60405161068f9190615257565b60405180910390f35b6106a0611cb9565b6040516106ad9190614df6565b60405180910390f35b6106be611cdd565b6040516106cb9190615257565b60405180910390f35b6106dc611cea565b6040516106e99190614e55565b60405180910390f35b61070c600480360381019061070791906148df565b611d7c565b005b61072860048036038101906107239190614761565b611de1565b6040516107359190614e3a565b60405180910390f35b61075860048036038101906107539190614829565b611e58565b6040516107659190615257565b60405180910390f35b61078860048036038101906107839190614761565b6122b6565b6040516107959190614e3a565b60405180910390f35b6107b860048036038101906107b391906148df565b6122d9565b6040516107c59190615257565b60405180910390f35b6107e860048036038101906107e39190614800565b612da8565b6040516107f59190615257565b60405180910390f35b61080661321f565b6040516108139190614df6565b60405180910390f35b61083660048036038101906108319190614908565b613245565b6040516108439190614e3a565b60405180910390f35b610854613356565b6040516108619190615257565b60405180910390f35b61087261335c565b60405161087f9190614e3a565b60405180910390f35b610890613376565b60405161089d9190614e3a565b60405180910390f35b6108c060048036038101906108bb91906146d6565b6133cd565b6040516108cd9190615257565b60405180910390f35b6108f060048036038101906108eb91906148df565b613454565b005b61090c60048036038101906109079190614908565b6134b9565b6040516109199190614e3a565b60405180910390f35b61093c600480360381019061093791906146ad565b6135ca565b6040516109499190615257565b60405180910390f35b61095a613666565b6040516109679190614e55565b60405180910390f35b61098a60048036038101906109859190614800565b6136fb565b6040516109979190615257565b60405180910390f35b6109ba60048036038101906109b591906146ad565b613bf3565b005b6109c4613c8f565b6040516109d19190615257565b60405180910390f35b6109e2613c95565b005b6060600780546109f3906154ab565b80601f0160208091040260200160405190810160405280929190818152602001828054610a1f906154ab565b8015610a6c5780601f10610a4157610100808354040283529160200191610a6c565b820191906000526020600020905b815481529060010190602001808311610a4f57829003601f168201915b5050505050905090565b60008054906101000a900473ffffffffffffffffffffffffffffffffffffffff1673ffffffffffffffffffffffffffffffffffffffff163373ffffffffffffffffffffffffffffffffffffffff1614610ace57600080fd5b8060136002018190555050565b600080610ae6613d1b565b9050610af3818585613d23565b600191505092915050565b60008054906101000a900473ffffffffffffffffffffffffffffffffffffffff1673ffffffffffffffffffffffffffffffffffffffff163373ffffffffffffffffffffffffffffffffffffffff1614610b5657600080fd5b8060136003018190555050565b6000600454905090565b6000601860008373ffffffffffffffffffffffffffffffffffffffff1673ffffffffffffffffffffffffffffffffffffffff168152602001908152602001600020600101549050919050565b600080610bc4613d1b565b9050610bd1858285613eee565b610bdc858585613f7a565b60019150509392505050565b60006012905090565b60003373ffffffffffffffffffffffffffffffffffffffff166009800160009054906101000a900473ffffffffffffffffffffffffffffffffffffffff1673ffffffffffffffffffffffffffffffffffffffff1614905090565b60008073ffffffffffffffffffffffffffffffffffffffff168373ffffffffffffffffffffffffffffffffffffffff161415610cbc576040517f08c379a0000000000000000000000000000000000000000000000000000000008152600401610cb390615117565b60405180910390fd5b8473ffffffffffffffffffffffffffffffffffffffff16601c60009054906101000a900473ffffffffffffffffffffffffffffffffffffffff1673ffffffffffffffffffffffffffffffffffffffff1614610d4c576040517f08c379a0000000000000000000000000000000000000000000000000000000008152600401610d4390615037565b60405180910390fd5b601e548414610d90576040517f08c379a0000000000000000000000000000000000000000000000000000000008152600401610d8790615097565b60405180910390fd5b610d9c836000846141fe565b6000600260008573ffffffffffffffffffffffffffffffffffffffff1673ffffffffffffffffffffffffffffffffffffffff16815260200190815260200160002054905082811015610e23576040517f08c379a0000000000000000000000000000000000000000000000000000000008152600401610e1a90614ed7565b60405180910390fd5b828103600260008673ffffffffffffffffffffffffffffffffffffffff1673ffffffffffffffffffffffffffffffffffffffff168152602001908152602001600020819055508260046000828254610e7b91906153e0565b92505081905550600073ffffffffffffffffffffffffffffffffffffffff168473ffffffffffffffffffffffffffffffffffffffff167fddf252ad1be2c89b69c2b068fc378daa952ba7f163c4a11628f55a4df523b3ef85604051610ee09190615257565b60405180910390a3610ef484600085614203565b610efd8461156e565b915050949350505050565b60055481565b600080610f19613d1b565b9050610f3a818585610f2b85896133cd565b610f3591906152ff565b613d23565b600191505092915050565b6000601a54905090565b610f60610f5a613d1b565b82614208565b50565b60006020546021541115610f88576103e8602154610f8191906152ff565b9050610f8e565b60205490505b90565b600060011515601860003373ffffffffffffffffffffffffffffffffffffffff1673ffffffffffffffffffffffffffffffffffffffff16815260200190815260200160002060000160009054906101000a900460ff16151514611029576040517f08c379a000000000000000000000000000000000000000000000000000000000815260040161102090614f57565b60405180910390fd5b60008060008060006003601860008973ffffffffffffffffffffffffffffffffffffffff1673ffffffffffffffffffffffffffffffffffffffff168152602001908152602001600020600101546110809190615386565b9350600a8461108f9190615355565b92506003601860008973ffffffffffffffffffffffffffffffffffffffff1673ffffffffffffffffffffffffffffffffffffffff168152602001908152602001600020600201546110e09190615386565b9350600a846110ef9190615355565b91506004601860008973ffffffffffffffffffffffffffffffffffffffff1673ffffffffffffffffffffffffffffffffffffffff168152602001908152602001600020600301546111409190615386565b9350600a8461114f9190615355565b9050818361115d91906152ff565b93508284101561116c57600080fd5b808461117891906152ff565b94508385101561118757600080fd5b8495505050505050919050565b60008054906101000a900473ffffffffffffffffffffffffffffffffffffffff1673ffffffffffffffffffffffffffffffffffffffff163373ffffffffffffffffffffffffffffffffffffffff16146111ec57600080fd5b8060136004018190555050565b6000601860008373ffffffffffffffffffffffffffffffffffffffff1673ffffffffffffffffffffffffffffffffffffffff168152602001908152602001600020600201549050919050565b60008073ffffffffffffffffffffffffffffffffffffffff168373ffffffffffffffffffffffffffffffffffffffff1614156112b6576040517f08c379a00000000000000000000000000000000000000000000000000000000081526004016112ad90615117565b60405180910390fd5b8473ffffffffffffffffffffffffffffffffffffffff16601d60009054906101000a900473ffffffffffffffffffffffffffffffffffffffff1673ffffffffffffffffffffffffffffffffffffffff1614611346576040517f08c379a000000000000000000000000000000000000000000000000000000000815260040161133d90615057565b60405180910390fd5b601f54841461138a576040517f08c379a000000000000000000000000000000000000000000000000000000000815260040161138190614fd7565b60405180910390fd5b611396836000846141fe565b6000600260008573ffffffffffffffffffffffffffffffffffffffff1673ffffffffffffffffffffffffffffffffffffffff1681526020019081526020016000205490508281101561141d576040517f08c379a000000000000000000000000000000000000000000000000000000000815260040161141490614ed7565b60405180910390fd5b828103600260008673ffffffffffffffffffffffffffffffffffffffff1673ffffffffffffffffffffffffffffffffffffffff16815260200190815260200160002081905550826004600082825461147591906153e0565b92505081905550600073ffffffffffffffffffffffffffffffffffffffff168473ffffffffffffffffffffffffffffffffffffffff167fddf252ad1be2c89b69c2b068fc378daa952ba7f163c4a11628f55a4df523b3ef856040516114da9190615257565b60405180910390a36114ee84600085614203565b6114f78461156e565b915050949350505050565b60008060009054906101000a900473ffffffffffffffffffffffffffffffffffffffff1673ffffffffffffffffffffffffffffffffffffffff163373ffffffffffffffffffffffffffffffffffffffff161461155d57600080fd5b816006819055506006549050919050565b6000600260008373ffffffffffffffffffffffffffffffffffffffff1673ffffffffffffffffffffffffffffffffffffffff168152602001908152602001600020549050919050565b6000601860008373ffffffffffffffffffffffffffffffffffffffff1673ffffffffffffffffffffffffffffffffffffffff168152602001908152602001600020600301549050919050565b600060011515601860003373ffffffffffffffffffffffffffffffffffffffff1673ffffffffffffffffffffffffffffffffffffffff16815260200190815260200160002060000160009054906101000a900460ff1615151461169b576040517f08c379a000000000000000000000000000000000000000000000000000000000815260040161169290614ef7565b60405180910390fd5b6013600001546116aa3361156e565b10156116eb576040517f08c379a00000000000000000000000000000000000000000000000000000000081526004016116e290615077565b60405180910390fd5b600087101580156116fd575060048711155b61173c576040517f08c379a000000000000000000000000000000000000000000000000000000000815260040161173390614f17565b60405180910390fd5b6000861015801561174e575060048611155b61178d576040517f08c379a0000000000000000000000000000000000000000000000000000000008152600401611784906150f7565b60405180910390fd5b6000851015801561179f575060048511155b6117de576040517f08c379a00000000000000000000000000000000000000000000000000000000081526004016117d590614f97565b60405180910390fd5b600084101580156117f0575060028411155b61182f576040517f08c379a0000000000000000000000000000000000000000000000000000000008152600401611826906150d7565b60405180910390fd5b60008310158015611841575060028311155b611880576040517f08c379a0000000000000000000000000000000000000000000000000000000008152600401611877906150b7565b60405180910390fd5b60008210158015611892575060028211155b6118d1576040517f08c379a00000000000000000000000000000000000000000000000000000000081526004016118c890615177565b60405180910390fd5b336009800160006101000a81548173ffffffffffffffffffffffffffffffffffffffff021916908373ffffffffffffffffffffffffffffffffffffffff160217905550876009600801908051906020019061192d929190614542565b508660096002018190555085600960030181905550846009600401819055508360096005018190555082600960060181905550816009600701819055506001600960000160016101000a81548160ff0219169083151502179055506000600960000160006101000a81548160ff0219169083151502179055506103e8426119b49190615557565b600960010181905550602660006119cb91906145c8565b602760006119d991906145c8565b600060228190555060006023819055506119f833601360000154614208565b601a6000815480929190611a0b9061550e565b91905055507f3a58c0c9c3d08dc8738ad24cec55a4e8535db97b6296adc07942d99881f630fd33600960010154604051611a46929190614e11565b60405180910390a16009600101549050979650505050505050565b600160009054906101000a900473ffffffffffffffffffffffffffffffffffffffff1673ffffffffffffffffffffffffffffffffffffffff163373ffffffffffffffffffffffffffffffffffffffff1614611abb57600080fd5b600160009054906101000a900473ffffffffffffffffffffffffffffffffffffffff1673ffffffffffffffffffffffffffffffffffffffff1660008054906101000a900473ffffffffffffffffffffffffffffffffffffffff1673ffffffffffffffffffffffffffffffffffffffff167f8be0079c531659141344cd1fd0a4f28419497f9722a3daafe3b4186f6b6457e060405160405180910390a3600160009054906101000a900473ffffffffffffffffffffffffffffffffffffffff166000806101000a81548173ffffffffffffffffffffffffffffffffffffffff021916908373ffffffffffffffffffffffffffffffffffffffff1602179055506000600160006101000a81548173ffffffffffffffffffffffffffffffffffffffff021916908373ffffffffffffffffffffffffffffffffffffffff160217905550565b611c0f82611c09613d1b565b83613eee565b611c198282614208565b5050565b600081601c60006101000a81548173ffffffffffffffffffffffffffffffffffffffff021916908373ffffffffffffffffffffffffffffffffffffffff1602179055506103e842611c6e9190615557565b601e819055507ffab2d127a3aa1f2e5aafce0c65882e9d5cc9578a43c1f9187bccefa1fe8dc1b382601e54604051611ca7929190614e11565b60405180910390a1601e549050919050565b60008054906101000a900473ffffffffffffffffffffffffffffffffffffffff1681565b6000601360000154905090565b606060088054611cf9906154ab565b80601f0160208091040260200160405190810160405280929190818152602001828054611d25906154ab565b8015611d725780601f10611d4757610100808354040283529160200191611d72565b820191906000526020600020905b815481529060010190602001808311611d5557829003601f168201915b5050505050905090565b60008054906101000a900473ffffffffffffffffffffffffffffffffffffffff1673ffffffffffffffffffffffffffffffffffffffff163373ffffffffffffffffffffffffffffffffffffffff1614611dd457600080fd5b8060136000018190555050565b600080611dec613d1b565b90506000611dfa82866133cd565b905083811015611e3f576040517f08c379a0000000000000000000000000000000000000000000000000000000008152600401611e36906151f7565b60405180910390fd5b611e4c8286868403613d23565b60019250505092915050565b600060011515601860003373ffffffffffffffffffffffffffffffffffffffff1673ffffffffffffffffffffffffffffffffffffffff16815260200190815260200160002060000160009054906101000a900460ff16151514611ef0576040517f08c379a0000000000000000000000000000000000000000000000000000000008152600401611ee790614ef7565b60405180910390fd5b601360000154611eff3361156e565b1015611f40576040517f08c379a0000000000000000000000000000000000000000000000000000000008152600401611f3790615077565b60405180910390fd5b60008710158015611f52575060048711155b611f91576040517f08c379a0000000000000000000000000000000000000000000000000000000008152600401611f8890614f17565b60405180910390fd5b60008610158015611fa3575060048611155b611fe2576040517f08c379a0000000000000000000000000000000000000000000000000000000008152600401611fd9906150f7565b60405180910390fd5b60008510158015611ff4575060048511155b612033576040517f08c379a000000000000000000000000000000000000000000000000000000000815260040161202a90614f97565b60405180910390fd5b60008410158015612045575060028411155b612084576040517f08c379a000000000000000000000000000000000000000000000000000000000815260040161207b906150d7565b60405180910390fd5b60008310158015612096575060028311155b6120d5576040517f08c379a00000000000000000000000000000000000000000000000000000000081526004016120cc906150b7565b60405180910390fd5b600082101580156120e7575060028211155b612126576040517f08c379a000000000000000000000000000000000000000000000000000000000815260040161211d90615177565b60405180910390fd5b336009800160006101000a81548173ffffffffffffffffffffffffffffffffffffffff021916908373ffffffffffffffffffffffffffffffffffffffff1602179055508760096008019080519060200190612182929190614542565b508660096002018190555085600960030181905550846009600401819055508360096005018190555082600960060181905550816009600701819055506001600960000160016101000a81548160ff0219169083151502179055506000600960000160006101000a81548160ff0219169083151502179055506103e8426122099190615557565b6009600101819055506024600061222091906145c8565b6025600061222e91906145c8565b6000602081905550600060218190555061224d33601360000154614208565b601a60008154809291906122609061550e565b91905055507f3a58c0c9c3d08dc8738ad24cec55a4e8535db97b6296adc07942d99881f630fd3360096001015460405161229b929190614e11565b60405180910390a16009600101549050979650505050505050565b6000806122c1613d1b565b90506122ce818585613f7a565b600191505092915050565b600060011515601860003373ffffffffffffffffffffffffffffffffffffffff1673ffffffffffffffffffffffffffffffffffffffff16815260200190815260200160002060000160009054906101000a900460ff16151514612371576040517f08c379a000000000000000000000000000000000000000000000000000000000815260040161236890614f57565b60405180910390fd5b60011515600960000160009054906101000a900460ff161515146123ca576040517f08c379a00000000000000000000000000000000000000000000000000000000081526004016123c190614ff7565b60405180910390fd5b601a54601860003373ffffffffffffffffffffffffffffffffffffffff1673ffffffffffffffffffffffffffffffffffffffff1681526020019081526020016000206005015410612450576040517f08c379a000000000000000000000000000000000000000000000000000000000815260040161244790615137565b60405180910390fd5b6009600101548214612497576040517f08c379a000000000000000000000000000000000000000000000000000000000815260040161248e90614e77565b60405180910390fd5b6000806000806000806000601a54601860003373ffffffffffffffffffffffffffffffffffffffff1673ffffffffffffffffffffffffffffffffffffffff168152602001908152602001600020600501819055506003601860003373ffffffffffffffffffffffffffffffffffffffff1673ffffffffffffffffffffffffffffffffffffffff1681526020019081526020016000206001015461253a9190615386565b9450600a856125499190615355565b93506003601860003373ffffffffffffffffffffffffffffffffffffffff1673ffffffffffffffffffffffffffffffffffffffff1681526020019081526020016000206002015461259a9190615386565b9450600a856125a99190615355565b92506004601860003373ffffffffffffffffffffffffffffffffffffffff1673ffffffffffffffffffffffffffffffffffffffff168152602001908152602001600020600301546125fa9190615386565b9450600a856126099190615355565b9150828461261791906152ff565b94508385101561262657600080fd5b818561263291906152ff565b95508486101561264157600080fd5b8590503373ffffffffffffffffffffffffffffffffffffffff166009800160009054906101000a900473ffffffffffffffffffffffffffffffffffffffff1673ffffffffffffffffffffffffffffffffffffffff161415612a0057610100601860003373ffffffffffffffffffffffffffffffffffffffff1673ffffffffffffffffffffffffffffffffffffffff16815260200190815260200160002060010154101561279557601860003373ffffffffffffffffffffffffffffffffffffffff1673ffffffffffffffffffffffffffffffffffffffff1681526020019081526020016000206001015494506009600201548561273e91906152ff565b95508486101561274d57600080fd5b85601860003373ffffffffffffffffffffffffffffffffffffffff1673ffffffffffffffffffffffffffffffffffffffff168152602001908152602001600020600101819055505b610100601860003373ffffffffffffffffffffffffffffffffffffffff1673ffffffffffffffffffffffffffffffffffffffff16815260200190815260200160002060020154101561288e57601860003373ffffffffffffffffffffffffffffffffffffffff1673ffffffffffffffffffffffffffffffffffffffff1681526020019081526020016000206002015494506009600301548561283791906152ff565b95508486101561284657600080fd5b85601860003373ffffffffffffffffffffffffffffffffffffffff1673ffffffffffffffffffffffffffffffffffffffff168152602001908152602001600020600201819055505b610100601860003373ffffffffffffffffffffffffffffffffffffffff1673ffffffffffffffffffffffffffffffffffffffff16815260200190815260200160002060030154101561298757601860003373ffffffffffffffffffffffffffffffffffffffff1673ffffffffffffffffffffffffffffffffffffffff1681526020019081526020016000206003015494506009600401548561293091906152ff565b95508486101561293f57600080fd5b85601860003373ffffffffffffffffffffffffffffffffffffffff1673ffffffffffffffffffffffffffffffffffffffff168152602001908152602001600020600301819055505b8094508460136002015461299b9190615386565b9550610100866129ab9190615355565b9450601360020154856129be91906152ff565b9550848610156129cd57600080fd5b8596506129fb60008054906101000a900473ffffffffffffffffffffffffffffffffffffffff163389613f7a565b612d60565b610100601860003373ffffffffffffffffffffffffffffffffffffffff1673ffffffffffffffffffffffffffffffffffffffff168152602001908152602001600020600101541015612af957601860003373ffffffffffffffffffffffffffffffffffffffff1673ffffffffffffffffffffffffffffffffffffffff16815260200190815260200160002060010154945060096005015485612aa291906152ff565b955084861015612ab157600080fd5b85601860003373ffffffffffffffffffffffffffffffffffffffff1673ffffffffffffffffffffffffffffffffffffffff168152602001908152602001600020600101819055505b610100601860003373ffffffffffffffffffffffffffffffffffffffff1673ffffffffffffffffffffffffffffffffffffffff168152602001908152602001600020600201541015612bf257601860003373ffffffffffffffffffffffffffffffffffffffff1673ffffffffffffffffffffffffffffffffffffffff16815260200190815260200160002060020154945060096006015485612b9b91906152ff565b955084861015612baa57600080fd5b85601860003373ffffffffffffffffffffffffffffffffffffffff1673ffffffffffffffffffffffffffffffffffffffff168152602001908152602001600020600201819055505b610100601860003373ffffffffffffffffffffffffffffffffffffffff1673ffffffffffffffffffffffffffffffffffffffff168152602001908152602001600020600301541015612ceb57601860003373ffffffffffffffffffffffffffffffffffffffff1673ffffffffffffffffffffffffffffffffffffffff16815260200190815260200160002060030154945060096007015485612c9491906152ff565b955084861015612ca357600080fd5b85601860003373ffffffffffffffffffffffffffffffffffffffff1673ffffffffffffffffffffffffffffffffffffffff168152602001908152602001600020600301819055505b80945084601360030154612cff9190615386565b955061010086612d0f9190615355565b945060136003015485612d2291906152ff565b955084861015612d3157600080fd5b859650612d5f60008054906101000a900473ffffffffffffffffffffffffffffffffffffffff163389613f7a565b5b7ff701ab0b5311a70ccdace2acf796d0ba7bc56eb618370c2bfd9d8f01b3e0fa2b3388604051612d91929190614e11565b60405180910390a186975050505050505050919050565b600060011515601860003373ffffffffffffffffffffffffffffffffffffffff1673ffffffffffffffffffffffffffffffffffffffff16815260200190815260200160002060000160009054906101000a900460ff16151514612e40576040517f08c379a0000000000000000000000000000000000000000000000000000000008152600401612e37906151d7565b60405180910390fd5b601360010154612e4f3361156e565b1015612e90576040517f08c379a0000000000000000000000000000000000000000000000000000000008152600401612e8790615237565b60405180910390fd5b601a54601860003373ffffffffffffffffffffffffffffffffffffffff1673ffffffffffffffffffffffffffffffffffffffff1681526020019081526020016000206004015410612f16576040517f08c379a0000000000000000000000000000000000000000000000000000000008152600401612f0d90614eb7565b60405180910390fd5b8115612f84576024339080600181540180825580915050600190039060005260206000200160009091909190916101000a81548173ffffffffffffffffffffffffffffffffffffffff021916908373ffffffffffffffffffffffffffffffffffffffff160217905550612fe8565b6025339080600181540180825580915050600190039060005260206000200160009091909190916101000a81548173ffffffffffffffffffffffffffffffffffffffff021916908373ffffffffffffffffffffffffffffffffffffffff1602179055505b601a54601860003373ffffffffffffffffffffffffffffffffffffffff1673ffffffffffffffffffffffffffffffffffffffff1681526020019081526020016000206004018190555061304033601360010154614208565b602580549050602480549050111561307b5760258054905060248054905061306891906153e0565b60208190555060006021819055506130a0565b60248054905060258054905061309191906153e0565b60218190555060006020819055505b6013600401546020541061310757602460006130bc91906145c8565b602560006130ca91906145c8565b6000600960000160016101000a81548160ff0219169083151502179055506001600960000160006101000a81548160ff0219169083151502179055505b6013600401546021541061316e576024600061312391906145c8565b6025600061313191906145c8565b6000600960000160016101000a81548160ff0219169083151502179055506000600960000160006101000a81548160ff0219169083151502179055505b60205460215411156131d9577f3a58c0c9c3d08dc8738ad24cec55a4e8535db97b6296adc07942d99881f630fd336103e86021546131ac91906152ff565b6040516131ba929190614e11565b60405180910390a16103e86021546131d291906152ff565b905061321a565b7f8c76dc2246a25ad5d8d68411cc9e0039d8d695b49656f7fd6bf4b8f6a12ca9773360205460405161320c929190614e11565b60405180910390a160205490505b919050565b600160009054906101000a900473ffffffffffffffffffffffffffffffffffffffff1681565b6000601f54831461328b576040517f08c379a000000000000000000000000000000000000000000000000000000000815260040161328290615017565b60405180910390fd5b6001601860008473ffffffffffffffffffffffffffffffffffffffff1673ffffffffffffffffffffffffffffffffffffffff16815260200190815260200160002060000160006101000a81548160ff021916908315150217905550601b60008154809291906132f99061550e565b9190505550601860008373ffffffffffffffffffffffffffffffffffffffff1673ffffffffffffffffffffffffffffffffffffffff16815260200190815260200160002060000160009054906101000a900460ff16905092915050565b601b5481565b6000600960000160009054906101000a900460ff16905090565b6000601860003373ffffffffffffffffffffffffffffffffffffffff1673ffffffffffffffffffffffffffffffffffffffff16815260200190815260200160002060000160009054906101000a900460ff16905090565b6000600360008473ffffffffffffffffffffffffffffffffffffffff1673ffffffffffffffffffffffffffffffffffffffff16815260200190815260200160002060008373ffffffffffffffffffffffffffffffffffffffff1673ffffffffffffffffffffffffffffffffffffffff16815260200190815260200160002054905092915050565b60008054906101000a900473ffffffffffffffffffffffffffffffffffffffff1673ffffffffffffffffffffffffffffffffffffffff163373ffffffffffffffffffffffffffffffffffffffff16146134ac57600080fd5b8060136001018190555050565b6000601e5483146134ff576040517f08c379a00000000000000000000000000000000000000000000000000000000081526004016134f6906151b7565b60405180910390fd5b6001601860008473ffffffffffffffffffffffffffffffffffffffff1673ffffffffffffffffffffffffffffffffffffffff16815260200190815260200160002060000160006101000a81548160ff021916908315150217905550601b600081548092919061356d9061550e565b9190505550601860008373ffffffffffffffffffffffffffffffffffffffff1673ffffffffffffffffffffffffffffffffffffffff16815260200190815260200160002060000160009054906101000a900460ff16905092915050565b600081601d60006101000a81548173ffffffffffffffffffffffffffffffffffffffff021916908373ffffffffffffffffffffffffffffffffffffffff1602179055506103e84261361b9190615557565b601f819055507ffab2d127a3aa1f2e5aafce0c65882e9d5cc9578a43c1f9187bccefa1fe8dc1b382601f54604051613654929190614e11565b60405180910390a1601f549050919050565b606060096008018054613678906154ab565b80601f01602080910402602001604051908101604052809291908181526020018280546136a4906154ab565b80156136f15780601f106136c6576101008083540402835291602001916136f1565b820191906000526020600020905b8154815290600101906020018083116136d457829003601f168201915b5050505050905090565b600060011515601860003373ffffffffffffffffffffffffffffffffffffffff1673ffffffffffffffffffffffffffffffffffffffff16815260200190815260200160002060000160009054906101000a900460ff16151514613793576040517f08c379a000000000000000000000000000000000000000000000000000000000815260040161378a906151d7565b60405180910390fd5b6013600101546137a23361156e565b10156137e3576040517f08c379a00000000000000000000000000000000000000000000000000000000081526004016137da90615237565b60405180910390fd5b601a54601860003373ffffffffffffffffffffffffffffffffffffffff1673ffffffffffffffffffffffffffffffffffffffff1681526020019081526020016000206004015410613869576040517f08c379a000000000000000000000000000000000000000000000000000000000815260040161386090614eb7565b60405180910390fd5b81156138d7576026339080600181540180825580915050600190039060005260206000200160009091909190916101000a81548173ffffffffffffffffffffffffffffffffffffffff021916908373ffffffffffffffffffffffffffffffffffffffff16021790555061393b565b6027339080600181540180825580915050600190039060005260206000200160009091909190916101000a81548173ffffffffffffffffffffffffffffffffffffffff021916908373ffffffffffffffffffffffffffffffffffffffff1602179055505b601a54601860003373ffffffffffffffffffffffffffffffffffffffff1673ffffffffffffffffffffffffffffffffffffffff1681526020019081526020016000206004018190555061399333601360010154614208565b60006002601b546139a49190615355565b9050600060036027805490506026805490506139c091906152ff565b60026139cc9190615386565b6139d69190615355565b90508160268054905060026139eb9190615386565b60278054905060026139fd9190615386565b613a0791906152ff565b10613b3e576027805490506026805490501115613a4757602780549050602680549050613a3491906153e0565b6022819055506000602381905550613a6c565b602680549050602780549050613a5d91906153e0565b60238190555060006022819055505b8060225410613ace5760266000613a8391906145c8565b60276000613a9191906145c8565b6000600960000160016101000a81548160ff0219169083151502179055506001600960000160006101000a81548160ff0219169083151502179055505b80601b54613adc91906153e0565b60235410613b3d5760266000613af291906145c8565b60276000613b0091906145c8565b6000600960000160016101000a81548160ff0219169083151502179055506000600960000160006101000a81548160ff0219169083151502179055505b5b6022546023541115613bab577f3a58c0c9c3d08dc8738ad24cec55a4e8535db97b6296adc07942d99881f630fd336103e8602354613b7c91906152ff565b604051613b8a929190614e11565b60405180910390a16103e8602354613ba291906152ff565b92505050613bee565b7f8c76dc2246a25ad5d8d68411cc9e0039d8d695b49656f7fd6bf4b8f6a12ca97733602254604051613bde929190614e11565b60405180910390a1602254925050505b919050565b60008054906101000a900473ffffffffffffffffffffffffffffffffffffffff1673ffffffffffffffffffffffffffffffffffffffff163373ffffffffffffffffffffffffffffffffffffffff1614613c4b57600080fd5b80600160006101000a81548173ffffffffffffffffffffffffffffffffffffffff021916908373ffffffffffffffffffffffffffffffffffffffff16021790555050565b60065481565b60008054906101000a900473ffffffffffffffffffffffffffffffffffffffff1673ffffffffffffffffffffffffffffffffffffffff163373ffffffffffffffffffffffffffffffffffffffff1614613ced57600080fd5b613d1960008054906101000a900473ffffffffffffffffffffffffffffffffffffffff166006546143e1565b565b600033905090565b600073ffffffffffffffffffffffffffffffffffffffff168373ffffffffffffffffffffffffffffffffffffffff161415613d93576040517f08c379a0000000000000000000000000000000000000000000000000000000008152600401613d8a90615197565b60405180910390fd5b600073ffffffffffffffffffffffffffffffffffffffff168273ffffffffffffffffffffffffffffffffffffffff161415613e03576040517f08c379a0000000000000000000000000000000000000000000000000000000008152600401613dfa90614f37565b60405180910390fd5b80600360008573ffffffffffffffffffffffffffffffffffffffff1673ffffffffffffffffffffffffffffffffffffffff16815260200190815260200160002060008473ffffffffffffffffffffffffffffffffffffffff1673ffffffffffffffffffffffffffffffffffffffff168152602001908152602001600020819055508173ffffffffffffffffffffffffffffffffffffffff168373ffffffffffffffffffffffffffffffffffffffff167f8c5be1e5ebec7d5bd14f71427d1e84f3dd0314c0f7b2291e5b200ac8c7c3b92583604051613ee19190615257565b60405180910390a3505050565b6000613efa84846133cd565b90507fffffffffffffffffffffffffffffffffffffffffffffffffffffffffffffffff8114613f745781811015613f66576040517f08c379a0000000000000000000000000000000000000000000000000000000008152600401613f5d90614f77565b60405180910390fd5b613f738484848403613d23565b5b50505050565b600073ffffffffffffffffffffffffffffffffffffffff168373ffffffffffffffffffffffffffffffffffffffff161415613fea576040517f08c379a0000000000000000000000000000000000000000000000000000000008152600401613fe190615157565b60405180910390fd5b600073ffffffffffffffffffffffffffffffffffffffff168273ffffffffffffffffffffffffffffffffffffffff16141561405a576040517f08c379a000000000000000000000000000000000000000000000000000000000815260040161405190614e97565b60405180910390fd5b6140658383836141fe565b6000600260008573ffffffffffffffffffffffffffffffffffffffff1673ffffffffffffffffffffffffffffffffffffffff168152602001908152602001600020549050818110156140ec576040517f08c379a00000000000000000000000000000000000000000000000000000000081526004016140e390614fb7565b60405180910390fd5b818103600260008673ffffffffffffffffffffffffffffffffffffffff1673ffffffffffffffffffffffffffffffffffffffff1681526020019081526020016000208190555081600260008573ffffffffffffffffffffffffffffffffffffffff1673ffffffffffffffffffffffffffffffffffffffff168152602001908152602001600020600082825461418191906152ff565b925050819055508273ffffffffffffffffffffffffffffffffffffffff168473ffffffffffffffffffffffffffffffffffffffff167fddf252ad1be2c89b69c2b068fc378daa952ba7f163c4a11628f55a4df523b3ef846040516141e59190615257565b60405180910390a36141f8848484614203565b50505050565b505050565b505050565b600073ffffffffffffffffffffffffffffffffffffffff168273ffffffffffffffffffffffffffffffffffffffff161415614278576040517f08c379a000000000000000000000000000000000000000000000000000000000815260040161426f90615117565b60405180910390fd5b614284826000836141fe565b6000600260008473ffffffffffffffffffffffffffffffffffffffff1673ffffffffffffffffffffffffffffffffffffffff1681526020019081526020016000205490508181101561430b576040517f08c379a000000000000000000000000000000000000000000000000000000000815260040161430290614ed7565b60405180910390fd5b818103600260008573ffffffffffffffffffffffffffffffffffffffff1673ffffffffffffffffffffffffffffffffffffffff16815260200190815260200160002081905550816004600082825461436391906153e0565b92505081905550600073ffffffffffffffffffffffffffffffffffffffff168373ffffffffffffffffffffffffffffffffffffffff167fddf252ad1be2c89b69c2b068fc378daa952ba7f163c4a11628f55a4df523b3ef846040516143c89190615257565b60405180910390a36143dc83600084614203565b505050565b600073ffffffffffffffffffffffffffffffffffffffff168273ffffffffffffffffffffffffffffffffffffffff161415614451576040517f08c379a000000000000000000000000000000000000000000000000000000000815260040161444890615217565b60405180910390fd5b61445d600083836141fe565b806004600082825461446f91906152ff565b9250508190555080600260008473ffffffffffffffffffffffffffffffffffffffff1673ffffffffffffffffffffffffffffffffffffffff16815260200190815260200160002060008282546144c591906152ff565b925050819055508173ffffffffffffffffffffffffffffffffffffffff16600073ffffffffffffffffffffffffffffffffffffffff167fddf252ad1be2c89b69c2b068fc378daa952ba7f163c4a11628f55a4df523b3ef8360405161452a9190615257565b60405180910390a361453e60008383614203565b5050565b82805461454e906154ab565b90600052602060002090601f01602090048101928261457057600085556145b7565b82601f1061458957805160ff19168380011785556145b7565b828001600101855582156145b7579182015b828111156145b657825182559160200191906001019061459b565b5b5090506145c491906145e9565b5090565b50805460008255906000526020600020908101906145e691906145e9565b50565b5b808211156146025760008160009055506001016145ea565b5090565b6000614619614614846152b2565b61528d565b90508281526020810184848401111561463157600080fd5b61463c848285615469565b509392505050565b60008135905061465381615dac565b92915050565b60008135905061466881615dc3565b92915050565b600082601f83011261467f57600080fd5b813561468f848260208601614606565b91505092915050565b6000813590506146a781615dda565b92915050565b6000602082840312156146bf57600080fd5b60006146cd84828501614644565b91505092915050565b600080604083850312156146e957600080fd5b60006146f785828601614644565b925050602061470885828601614644565b9150509250929050565b60008060006060848603121561472757600080fd5b600061473586828701614644565b935050602061474686828701614644565b925050604061475786828701614698565b9150509250925092565b6000806040838503121561477457600080fd5b600061478285828601614644565b925050602061479385828601614698565b9150509250929050565b600080600080608085870312156147b357600080fd5b60006147c187828801614644565b94505060206147d287828801614698565b93505060406147e387828801614644565b92505060606147f487828801614698565b91505092959194509250565b60006020828403121561481257600080fd5b600061482084828501614659565b91505092915050565b600080600080600080600060e0888a03121561484457600080fd5b600088013567ffffffffffffffff81111561485e57600080fd5b61486a8a828b0161466e565b975050602061487b8a828b01614698565b965050604061488c8a828b01614698565b955050606061489d8a828b01614698565b94505060806148ae8a828b01614698565b93505060a06148bf8a828b01614698565b92505060c06148d08a828b01614698565b91505092959891949750929550565b6000602082840312156148f157600080fd5b60006148ff84828501614698565b91505092915050565b6000806040838503121561491b57600080fd5b600061492985828601614698565b925050602061493a85828601614644565b9150509250929050565b61494d81615414565b82525050565b61495c81615426565b82525050565b600061496d826152e3565b61497781856152ee565b9350614987818560208601615478565b61499081615644565b840191505092915050565b60006149a86019836152ee565b91506149b382615655565b602082019050919050565b60006149cb6023836152ee565b91506149d68261567e565b604082019050919050565b60006149ee6024836152ee565b91506149f9826156cd565b604082019050919050565b6000614a116022836152ee565b9150614a1c8261571c565b604082019050919050565b6000614a346017836152ee565b9150614a3f8261576b565b602082019050919050565b6000614a576030836152ee565b9150614a6282615794565b604082019050919050565b6000614a7a6022836152ee565b9150614a85826157e3565b604082019050919050565b6000614a9d6016836152ee565b9150614aa882615832565b602082019050919050565b6000614ac0601d836152ee565b9150614acb8261585b565b602082019050919050565b6000614ae36031836152ee565b9150614aee82615884565b604082019050919050565b6000614b066026836152ee565b9150614b11826158d3565b604082019050919050565b6000614b29601b836152ee565b9150614b3482615922565b602082019050919050565b6000614b4c601c836152ee565b9150614b578261594b565b602082019050919050565b6000614b6f6013836152ee565b9150614b7a82615974565b602082019050919050565b6000614b92601a836152ee565b9150614b9d8261599d565b602082019050919050565b6000614bb56020836152ee565b9150614bc0826159c6565b602082019050919050565b6000614bd8601d836152ee565b9150614be3826159ef565b602082019050919050565b6000614bfb601a836152ee565b9150614c0682615a18565b602082019050919050565b6000614c1e602e836152ee565b9150614c2982615a41565b604082019050919050565b6000614c416032836152ee565b9150614c4c82615a90565b604082019050919050565b6000614c64602c836152ee565b9150614c6f82615adf565b604082019050919050565b6000614c876021836152ee565b9150614c9282615b2e565b604082019050919050565b6000614caa6026836152ee565b9150614cb582615b7d565b604082019050919050565b6000614ccd6025836152ee565b9150614cd882615bcc565b604082019050919050565b6000614cf06033836152ee565b9150614cfb82615c1b565b604082019050919050565b6000614d136024836152ee565b9150614d1e82615c6a565b604082019050919050565b6000614d366012836152ee565b9150614d4182615cb9565b602082019050919050565b6000614d596014836152ee565b9150614d6482615ce2565b602082019050919050565b6000614d7c6025836152ee565b9150614d8782615d0b565b604082019050919050565b6000614d9f601f836152ee565b9150614daa82615d5a565b602082019050919050565b6000614dc2601a836152ee565b9150614dcd82615d83565b602082019050919050565b614de181615452565b82525050565b614df08161545c565b82525050565b6000602082019050614e0b6000830184614944565b92915050565b6000604082019050614e266000830185614944565b614e336020830184614dd8565b9392505050565b6000602082019050614e4f6000830184614953565b92915050565b60006020820190508181036000830152614e6f8184614962565b905092915050565b60006020820190508181036000830152614e908161499b565b9050919050565b60006020820190508181036000830152614eb0816149be565b9050919050565b60006020820190508181036000830152614ed0816149e1565b9050919050565b60006020820190508181036000830152614ef081614a04565b9050919050565b60006020820190508181036000830152614f1081614a27565b9050919050565b60006020820190508181036000830152614f3081614a4a565b9050919050565b60006020820190508181036000830152614f5081614a6d565b9050919050565b60006020820190508181036000830152614f7081614a90565b9050919050565b60006020820190508181036000830152614f9081614ab3565b9050919050565b60006020820190508181036000830152614fb081614ad6565b9050919050565b60006020820190508181036000830152614fd081614af9565b9050919050565b60006020820190508181036000830152614ff081614b1c565b9050919050565b6000602082019050818103600083015261501081614b3f565b9050919050565b6000602082019050818103600083015261503081614b62565b9050919050565b6000602082019050818103600083015261505081614b85565b9050919050565b6000602082019050818103600083015261507081614ba8565b9050919050565b6000602082019050818103600083015261509081614bcb565b9050919050565b600060208201905081810360008301526150b081614bee565b9050919050565b600060208201905081810360008301526150d081614c11565b9050919050565b600060208201905081810360008301526150f081614c34565b9050919050565b6000602082019050818103600083015261511081614c57565b9050919050565b6000602082019050818103600083015261513081614c7a565b9050919050565b6000602082019050818103600083015261515081614c9d565b9050919050565b6000602082019050818103600083015261517081614cc0565b9050919050565b6000602082019050818103600083015261519081614ce3565b9050919050565b600060208201905081810360008301526151b081614d06565b9050919050565b600060208201905081810360008301526151d081614d29565b9050919050565b600060208201905081810360008301526151f081614d4c565b9050919050565b6000602082019050818103600083015261521081614d6f565b9050919050565b6000602082019050818103600083015261523081614d92565b9050919050565b6000602082019050818103600083015261525081614db5565b9050919050565b600060208201905061526c6000830184614dd8565b92915050565b60006020820190506152876000830184614de7565b92915050565b60006152976152a8565b90506152a382826154dd565b919050565b6000604051905090565b600067ffffffffffffffff8211156152cd576152cc615615565b5b6152d682615644565b9050602081019050919050565b600081519050919050565b600082825260208201905092915050565b600061530a82615452565b915061531583615452565b9250827fffffffffffffffffffffffffffffffffffffffffffffffffffffffffffffffff0382111561534a57615349615588565b5b828201905092915050565b600061536082615452565b915061536b83615452565b92508261537b5761537a6155b7565b5b828204905092915050565b600061539182615452565b915061539c83615452565b9250817fffffffffffffffffffffffffffffffffffffffffffffffffffffffffffffffff04831182151516156153d5576153d4615588565b5b828202905092915050565b60006153eb82615452565b91506153f683615452565b92508282101561540957615408615588565b5b828203905092915050565b600061541f82615432565b9050919050565b60008115159050919050565b600073ffffffffffffffffffffffffffffffffffffffff82169050919050565b6000819050919050565b600060ff82169050919050565b82818337600083830152505050565b60005b8381101561549657808201518184015260208101905061547b565b838111156154a5576000848401525b50505050565b600060028204905060018216806154c357607f821691505b602082108114156154d7576154d66155e6565b5b50919050565b6154e682615644565b810181811067ffffffffffffffff8211171561550557615504615615565b5b80604052505050565b600061551982615452565b91507fffffffffffffffffffffffffffffffffffffffffffffffffffffffffffffffff82141561554c5761554b615588565b5b600182019050919050565b600061556282615452565b915061556d83615452565b92508261557d5761557c6155b7565b5b828206905092915050565b7f4e487b7100000000000000000000000000000000000000000000000000000000600052601160045260246000fd5b7f4e487b7100000000000000000000000000000000000000000000000000000000600052601260045260246000fd5b7f4e487b7100000000000000000000000000000000000000000000000000000000600052602260045260246000fd5b7f4e487b7100000000000000000000000000000000000000000000000000000000600052604160045260246000fd5b6000601f19601f8301169050919050565b7f6576656e7420636f6465206973206e6f7420636f727265637400000000000000600082015250565b7f45524332303a207472616e7366657220746f20746865207a65726f206164647260008201527f6573730000000000000000000000000000000000000000000000000000000000602082015250565b7f796f752063616e206f6e6c7920766f7465206f6e636520666f72206f6e65206560008201527f76656e7400000000000000000000000000000000000000000000000000000000602082015250565b7f45524332303a206275726e20616d6f756e7420657863656564732062616c616e60008201527f6365000000000000000000000000000000000000000000000000000000000000602082015250565b7f6f6e6c79206d656d6265722063616e2070726f706f7365000000000000000000600082015250565b7f746865206c65616465722070617274696369706174696f6e207570677261646560008201527f206973206f7574206f662072616e676500000000000000000000000000000000602082015250565b7f45524332303a20617070726f766520746f20746865207a65726f20616464726560008201527f7373000000000000000000000000000000000000000000000000000000000000602082015250565b7f6f6e6c79206d656d6265722063616e20617474656e6400000000000000000000600082015250565b7f45524332303a20696e73756666696369656e7420616c6c6f77616e6365000000600082015250565b7f746865206c656164657220706f70756c6172697a6174696f6e2075706772616460008201527f65206973206f7574206f662072616e6765000000000000000000000000000000602082015250565b7f45524332303a207472616e7366657220616d6f756e742065786365656473206260008201527f616c616e63650000000000000000000000000000000000000000000000000000602082015250565b7f6275726e6e657220737061776e20636f64652069732077726f6e670000000000600082015250565b7f63616e206f6e6c7920617474656e6420616374697665206576656e7400000000600082015250565b7f737061776e20636f64652069732077726f6e6700000000000000000000000000600082015250565b7f64726f7020626f6d6220616464726573732069732077726f6e67000000000000600082015250565b7f64726f7020737061776e20626f6d6220616464726573732069732077726f6e67600082015250565b7f6e6f7420656e6f756768207061796d656e7420746f2070726f706f7365000000600082015250565b7f6275726e6e65722073796e6320636f64652069732077726f6e67000000000000600082015250565b7f74686520617474656e64657220657865637574696f6e2075706772616465206960008201527f73206f7574206f662072616e6765000000000000000000000000000000000000602082015250565b7f74686520617474656e6465722070617274696369706174696f6e20757067726160008201527f6465206973206f7574206f662072616e67650000000000000000000000000000602082015250565b7f746865206c656164657220657865637574696f6e20757067726164652069732060008201527f6f7574206f662072616e67650000000000000000000000000000000000000000602082015250565b7f45524332303a206275726e2066726f6d20746865207a65726f2061646472657360008201527f7300000000000000000000000000000000000000000000000000000000000000602082015250565b7f796f752063616e206f6e6c7920617474656e64206f6e636520666f72206f6e6560008201527f206576656e740000000000000000000000000000000000000000000000000000602082015250565b7f45524332303a207472616e736665722066726f6d20746865207a65726f20616460008201527f6472657373000000000000000000000000000000000000000000000000000000602082015250565b7f74686520617474656e64657220706f70756c6172697a6174696f6e207570677260008201527f616465206973206f7574206f662072616e676500000000000000000000000000602082015250565b7f45524332303a20617070726f76652066726f6d20746865207a65726f2061646460008201527f7265737300000000000000000000000000000000000000000000000000000000602082015250565b7f73796e6320636f64652069732077726f6e670000000000000000000000000000600082015250565b7f6f6e6c79206d656d6265722063616e20766f7465000000000000000000000000600082015250565b7f45524332303a2064656372656173656420616c6c6f77616e63652062656c6f7760008201527f207a65726f000000000000000000000000000000000000000000000000000000602082015250565b7f45524332303a206d696e7420746f20746865207a65726f206164647265737300600082015250565b7f6e6f7420656e6f756768207061796d656e7420746f20766f7465000000000000600082015250565b615db581615414565b8114615dc057600080fd5b50565b615dcc81615426565b8114615dd757600080fd5b50565b615de381615452565b8114615dee57600080fd5b5056fea2646970667358221220992b7250b36d8fed63824bd64ec7092b199591f9094e0e209d7d4f20d88401c664736f6c63430008040033",
  "linkReferences": {},
  "deployedLinkReferences": {}
}