{
  "_format": "hh-sol-artifact-1",
  "contractName": "DaoNft",
  "sourceName": "contracts/DaoNft.sol",
  "abi": [
    {
      "inputs": [
        {
          "internalType": "address",
          "name": "addrBalance",
          "type": "address"
        }
      ],
      "stateMutability": "nonpayable",
      "type": "constructor"
    },
    {
      "inputs": [],
      "name": "ApprovalCallerNotOwnerNorApproved",
      "type": "error"
    },
    {
      "inputs": [],
      "name": "ApprovalQueryForNonexistentToken",
      "type": "error"
    },
    {
      "inputs": [],
      "name": "ApprovalToCurrentOwner",
      "type": "error"
    },
    {
      "inputs": [],
      "name": "ApproveToCaller",
      "type": "error"
    },
    {
      "inputs": [],
      "name": "BalanceQueryForZeroAddress",
      "type": "error"
    },
    {
      "inputs": [],
      "name": "MintToZeroAddress",
      "type": "error"
    },
    {
      "inputs": [],
      "name": "MintZeroQuantity",
      "type": "error"
    },
    {
      "inputs": [],
      "name": "OwnerQueryForNonexistentToken",
      "type": "error"
    },
    {
      "inputs": [],
      "name": "TransferCallerNotOwnerNorApproved",
      "type": "error"
    },
    {
      "inputs": [],
      "name": "TransferFromIncorrectOwner",
      "type": "error"
    },
    {
      "inputs": [],
      "name": "TransferToNonERC721ReceiverImplementer",
      "type": "error"
    },
    {
      "inputs": [],
      "name": "TransferToZeroAddress",
      "type": "error"
    },
    {
      "inputs": [],
      "name": "URIQueryForNonexistentToken",
      "type": "error"
    },
    {
      "anonymous": false,
      "inputs": [
        {
          "indexed": false,
          "internalType": "address",
          "name": "member",
          "type": "address"
        },
        {
          "indexed": false,
          "internalType": "uint256",
          "name": "seccode",
          "type": "uint256"
        }
      ],
      "name": "ApplyNftCode",
      "type": "event"
    },
    {
      "anonymous": false,
      "inputs": [
        {
          "indexed": true,
          "internalType": "address",
          "name": "owner",
          "type": "address"
        },
        {
          "indexed": true,
          "internalType": "address",
          "name": "approved",
          "type": "address"
        },
        {
          "indexed": true,
          "internalType": "uint256",
          "name": "tokenId",
          "type": "uint256"
        }
      ],
      "name": "Approval",
      "type": "event"
    },
    {
      "anonymous": false,
      "inputs": [
        {
          "indexed": true,
          "internalType": "address",
          "name": "owner",
          "type": "address"
        },
        {
          "indexed": true,
          "internalType": "address",
          "name": "operator",
          "type": "address"
        },
        {
          "indexed": false,
          "internalType": "bool",
          "name": "approved",
          "type": "bool"
        }
      ],
      "name": "ApprovalForAll",
      "type": "event"
    },
    {
      "anonymous": false,
      "inputs": [
        {
          "indexed": false,
          "internalType": "address",
          "name": "member",
          "type": "address"
        },
        {
          "indexed": false,
          "internalType": "uint256",
          "name": "seccode",
          "type": "uint256"
        }
      ],
      "name": "ApproveCode",
      "type": "event"
    },
    {
      "anonymous": false,
      "inputs": [
        {
          "indexed": true,
          "internalType": "address",
          "name": "_from",
          "type": "address"
        },
        {
          "indexed": true,
          "internalType": "address",
          "name": "_to",
          "type": "address"
        }
      ],
      "name": "OwnershipTransferred",
      "type": "event"
    },
    {
      "anonymous": false,
      "inputs": [
        {
          "indexed": false,
          "internalType": "address",
          "name": "member",
          "type": "address"
        },
        {
          "indexed": false,
          "internalType": "uint256",
          "name": "agreenum",
          "type": "uint256"
        }
      ],
      "name": "SpawnAgree",
      "type": "event"
    },
    {
      "anonymous": false,
      "inputs": [
        {
          "indexed": true,
          "internalType": "address",
          "name": "from",
          "type": "address"
        },
        {
          "indexed": true,
          "internalType": "address",
          "name": "to",
          "type": "address"
        },
        {
          "indexed": true,
          "internalType": "uint256",
          "name": "tokenId",
          "type": "uint256"
        }
      ],
      "name": "Transfer",
      "type": "event"
    },
    {
      "anonymous": false,
      "inputs": [
        {
          "indexed": false,
          "internalType": "address",
          "name": "owner",
          "type": "address"
        }
      ],
      "name": "medalClaimed",
      "type": "event"
    },
    {
      "inputs": [],
      "name": "acceptOwnership",
      "outputs": [],
      "stateMutability": "nonpayable",
      "type": "function"
    },
    {
      "inputs": [
        {
          "internalType": "string",
          "name": "_name",
          "type": "string"
        }
      ],
      "name": "applyNft",
      "outputs": [
        {
          "internalType": "uint256",
          "name": "",
          "type": "uint256"
        }
      ],
      "stateMutability": "nonpayable",
      "type": "function"
    },
    {
      "inputs": [
        {
          "internalType": "address",
          "name": "to",
          "type": "address"
        },
        {
          "internalType": "uint256",
          "name": "tokenId",
          "type": "uint256"
        }
      ],
      "name": "approve",
      "outputs": [],
      "stateMutability": "nonpayable",
      "type": "function"
    },
    {
      "inputs": [
        {
          "internalType": "address",
          "name": "_to",
          "type": "address"
        }
      ],
      "name": "approveMember",
      "outputs": [
        {
          "internalType": "uint256",
          "name": "",
          "type": "uint256"
        }
      ],
      "stateMutability": "nonpayable",
      "type": "function"
    },
    {
      "inputs": [
        {
          "internalType": "address",
          "name": "owner",
          "type": "address"
        }
      ],
      "name": "balanceOf",
      "outputs": [
        {
          "internalType": "uint256",
          "name": "",
          "type": "uint256"
        }
      ],
      "stateMutability": "view",
      "type": "function"
    },
    {
      "inputs": [],
      "name": "baseExtension",
      "outputs": [
        {
          "internalType": "string",
          "name": "",
          "type": "string"
        }
      ],
      "stateMutability": "view",
      "type": "function"
    },
    {
      "inputs": [],
      "name": "curApplicantDetail",
      "outputs": [
        {
          "internalType": "bool",
          "name": "approved",
          "type": "bool"
        },
        {
          "internalType": "bool",
          "name": "pending",
          "type": "bool"
        },
        {
          "internalType": "uint256",
          "name": "spawn_support_num",
          "type": "uint256"
        },
        {
          "internalType": "string",
          "name": "name",
          "type": "string"
        },
        {
          "internalType": "address",
          "name": "applicant_owner",
          "type": "address"
        }
      ],
      "stateMutability": "view",
      "type": "function"
    },
    {
      "inputs": [],
      "name": "genesising",
      "outputs": [
        {
          "internalType": "bool",
          "name": "",
          "type": "bool"
        }
      ],
      "stateMutability": "view",
      "type": "function"
    },
    {
      "inputs": [
        {
          "internalType": "uint256",
          "name": "tokenId",
          "type": "uint256"
        }
      ],
      "name": "getApproved",
      "outputs": [
        {
          "internalType": "address",
          "name": "",
          "type": "address"
        }
      ],
      "stateMutability": "view",
      "type": "function"
    },
    {
      "inputs": [],
      "name": "getCurApplicantName",
      "outputs": [
        {
          "internalType": "string",
          "name": "_name",
          "type": "string"
        }
      ],
      "stateMutability": "view",
      "type": "function"
    },
    {
      "inputs": [],
      "name": "getMemberAmount",
      "outputs": [
        {
          "internalType": "uint256",
          "name": "",
          "type": "uint256"
        }
      ],
      "stateMutability": "view",
      "type": "function"
    },
    {
      "inputs": [],
      "name": "getMemberBalance",
      "outputs": [
        {
          "internalType": "address",
          "name": "addrBalance",
          "type": "address"
        }
      ],
      "stateMutability": "view",
      "type": "function"
    },
    {
      "inputs": [
        {
          "internalType": "address",
          "name": "_to",
          "type": "address"
        }
      ],
      "name": "getMemberName",
      "outputs": [
        {
          "internalType": "string",
          "name": "",
          "type": "string"
        }
      ],
      "stateMutability": "view",
      "type": "function"
    },
    {
      "inputs": [],
      "name": "getNextTokenURI",
      "outputs": [
        {
          "internalType": "string",
          "name": "",
          "type": "string"
        }
      ],
      "stateMutability": "view",
      "type": "function"
    },
    {
      "inputs": [],
      "name": "getSpawnAgree",
      "outputs": [
        {
          "internalType": "uint256",
          "name": "",
          "type": "uint256"
        }
      ],
      "stateMutability": "view",
      "type": "function"
    },
    {
      "inputs": [],
      "name": "getSpawnCost",
      "outputs": [
        {
          "internalType": "uint256",
          "name": "",
          "type": "uint256"
        }
      ],
      "stateMutability": "view",
      "type": "function"
    },
    {
      "inputs": [
        {
          "internalType": "address",
          "name": "owner",
          "type": "address"
        },
        {
          "internalType": "address",
          "name": "operator",
          "type": "address"
        }
      ],
      "name": "isApprovedForAll",
      "outputs": [
        {
          "internalType": "bool",
          "name": "",
          "type": "bool"
        }
      ],
      "stateMutability": "view",
      "type": "function"
    },
    {
      "inputs": [
        {
          "internalType": "address",
          "name": "_to",
          "type": "address"
        }
      ],
      "name": "isMember",
      "outputs": [
        {
          "internalType": "bool",
          "name": "",
          "type": "bool"
        }
      ],
      "stateMutability": "view",
      "type": "function"
    },
    {
      "inputs": [],
      "name": "maxMintAmount",
      "outputs": [
        {
          "internalType": "uint256",
          "name": "",
          "type": "uint256"
        }
      ],
      "stateMutability": "view",
      "type": "function"
    },
    {
      "inputs": [],
      "name": "maxSupply",
      "outputs": [
        {
          "internalType": "uint256",
          "name": "",
          "type": "uint256"
        }
      ],
      "stateMutability": "view",
      "type": "function"
    },
    {
      "inputs": [],
      "name": "memberAmount",
      "outputs": [
        {
          "internalType": "uint256",
          "name": "",
          "type": "uint256"
        }
      ],
      "stateMutability": "view",
      "type": "function"
    },
    {
      "inputs": [],
      "name": "memberBalance",
      "outputs": [
        {
          "internalType": "contract DaoCredit",
          "name": "",
          "type": "address"
        }
      ],
      "stateMutability": "view",
      "type": "function"
    },
    {
      "inputs": [
        {
          "internalType": "address",
          "name": "_to",
          "type": "address"
        },
        {
          "internalType": "string",
          "name": "memberName",
          "type": "string"
        }
      ],
      "name": "mintOneNew",
      "outputs": [
        {
          "internalType": "uint256",
          "name": "",
          "type": "uint256"
        }
      ],
      "stateMutability": "nonpayable",
      "type": "function"
    },
    {
      "inputs": [],
      "name": "myBaseURI",
      "outputs": [
        {
          "internalType": "string",
          "name": "",
          "type": "string"
        }
      ],
      "stateMutability": "view",
      "type": "function"
    },
    {
      "inputs": [],
      "name": "name",
      "outputs": [
        {
          "internalType": "string",
          "name": "",
          "type": "string"
        }
      ],
      "stateMutability": "view",
      "type": "function"
    },
    {
      "inputs": [],
      "name": "newOwner",
      "outputs": [
        {
          "internalType": "address",
          "name": "",
          "type": "address"
        }
      ],
      "stateMutability": "view",
      "type": "function"
    },
    {
      "inputs": [],
      "name": "nftSetting",
      "outputs": [
        {
          "internalType": "uint256",
          "name": "spawn_threshold",
          "type": "uint256"
        },
        {
          "internalType": "uint256",
          "name": "spawn_cost",
          "type": "uint256"
        }
      ],
      "stateMutability": "view",
      "type": "function"
    },
    {
      "inputs": [],
      "name": "owner",
      "outputs": [
        {
          "internalType": "address",
          "name": "",
          "type": "address"
        }
      ],
      "stateMutability": "view",
      "type": "function"
    },
    {
      "inputs": [
        {
          "internalType": "uint256",
          "name": "tokenId",
          "type": "uint256"
        }
      ],
      "name": "ownerOf",
      "outputs": [
        {
          "internalType": "address",
          "name": "",
          "type": "address"
        }
      ],
      "stateMutability": "view",
      "type": "function"
    },
    {
      "inputs": [
        {
          "internalType": "bool",
          "name": "_state",
          "type": "bool"
        }
      ],
      "name": "pause",
      "outputs": [],
      "stateMutability": "nonpayable",
      "type": "function"
    },
    {
      "inputs": [],
      "name": "paused",
      "outputs": [
        {
          "internalType": "bool",
          "name": "",
          "type": "bool"
        }
      ],
      "stateMutability": "view",
      "type": "function"
    },
    {
      "inputs": [
        {
          "internalType": "address",
          "name": "_to",
          "type": "address"
        }
      ],
      "name": "resetMember",
      "outputs": [],
      "stateMutability": "nonpayable",
      "type": "function"
    },
    {
      "inputs": [
        {
          "internalType": "address",
          "name": "from",
          "type": "address"
        },
        {
          "internalType": "address",
          "name": "to",
          "type": "address"
        },
        {
          "internalType": "uint256",
          "name": "tokenId",
          "type": "uint256"
        }
      ],
      "name": "safeTransferFrom",
      "outputs": [],
      "stateMutability": "nonpayable",
      "type": "function"
    },
    {
      "inputs": [
        {
          "internalType": "address",
          "name": "from",
          "type": "address"
        },
        {
          "internalType": "address",
          "name": "to",
          "type": "address"
        },
        {
          "internalType": "uint256",
          "name": "tokenId",
          "type": "uint256"
        },
        {
          "internalType": "bytes",
          "name": "_data",
          "type": "bytes"
        }
      ],
      "name": "safeTransferFrom",
      "outputs": [],
      "stateMutability": "nonpayable",
      "type": "function"
    },
    {
      "inputs": [
        {
          "internalType": "address",
          "name": "operator",
          "type": "address"
        },
        {
          "internalType": "bool",
          "name": "approved",
          "type": "bool"
        }
      ],
      "name": "setApprovalForAll",
      "outputs": [],
      "stateMutability": "nonpayable",
      "type": "function"
    },
    {
      "inputs": [
        {
          "internalType": "string",
          "name": "_newBaseURI",
          "type": "string"
        }
      ],
      "name": "setBaseURI",
      "outputs": [],
      "stateMutability": "nonpayable",
      "type": "function"
    },
    {
      "inputs": [
        {
          "internalType": "string",
          "name": "_newName",
          "type": "string"
        }
      ],
      "name": "setMemberName",
      "outputs": [],
      "stateMutability": "nonpayable",
      "type": "function"
    },
    {
      "inputs": [
        {
          "internalType": "uint256",
          "name": "_newmaxMintAmount",
          "type": "uint256"
        }
      ],
      "name": "setmaxMintAmount",
      "outputs": [],
      "stateMutability": "nonpayable",
      "type": "function"
    },
    {
      "inputs": [],
      "name": "spawn",
      "outputs": [
        {
          "internalType": "uint256",
          "name": "",
          "type": "uint256"
        }
      ],
      "stateMutability": "nonpayable",
      "type": "function"
    },
    {
      "inputs": [],
      "name": "spawnCallback",
      "outputs": [
        {
          "internalType": "uint256",
          "name": "",
          "type": "uint256"
        }
      ],
      "stateMutability": "nonpayable",
      "type": "function"
    },
    {
      "inputs": [
        {
          "internalType": "bytes4",
          "name": "interfaceId",
          "type": "bytes4"
        }
      ],
      "name": "supportsInterface",
      "outputs": [
        {
          "internalType": "bool",
          "name": "",
          "type": "bool"
        }
      ],
      "stateMutability": "view",
      "type": "function"
    },
    {
      "inputs": [],
      "name": "symbol",
      "outputs": [
        {
          "internalType": "string",
          "name": "",
          "type": "string"
        }
      ],
      "stateMutability": "view",
      "type": "function"
    },
    {
      "inputs": [
        {
          "internalType": "uint256",
          "name": "tokenId",
          "type": "uint256"
        }
      ],
      "name": "tokenURI",
      "outputs": [
        {
          "internalType": "string",
          "name": "",
          "type": "string"
        }
      ],
      "stateMutability": "view",
      "type": "function"
    },
    {
      "inputs": [],
      "name": "totalSupply",
      "outputs": [
        {
          "internalType": "uint256",
          "name": "",
          "type": "uint256"
        }
      ],
      "stateMutability": "view",
      "type": "function"
    },
    {
      "inputs": [
        {
          "internalType": "address",
          "name": "from",
          "type": "address"
        },
        {
          "internalType": "address",
          "name": "to",
          "type": "address"
        },
        {
          "internalType": "uint256",
          "name": "tokenId",
          "type": "uint256"
        }
      ],
      "name": "transferFrom",
      "outputs": [],
      "stateMutability": "nonpayable",
      "type": "function"
    },
    {
      "inputs": [
        {
          "internalType": "address",
          "name": "_newOwner",
          "type": "address"
        }
      ],
      "name": "transferOwnership",
      "outputs": [],
      "stateMutability": "nonpayable",
      "type": "function"
    },
    {
      "inputs": [
        {
          "internalType": "uint256",
          "name": "new_threshold",
          "type": "uint256"
        }
      ],
      "name": "upgradeCostPropose",
      "outputs": [],
      "stateMutability": "nonpayable",
      "type": "function"
    },
    {
      "inputs": [
        {
          "internalType": "uint256",
          "name": "new_cost",
          "type": "uint256"
        }
      ],
      "name": "upgradeCostVote",
      "outputs": [],
      "stateMutability": "nonpayable",
      "type": "function"
    }
  ],
  "bytecode": "0x608060405261c350601355600160145560405180606001604052806035815260200162005c8560359139601590805190602001906200004092919062000293565b506040518060400160405280600581526020017f2e6a736f6e000000000000000000000000000000000000000000000000000000815250601690805190602001906200008e92919062000293565b506000601760006101000a81548160ff0219169083151502179055506000601760016101000a81548160ff021916908315150217905550348015620000d257600080fd5b5060405162005cba38038062005cba8339818101604052810190620000f891906200035a565b6040518060400160405280600681526020017f44616f4e667400000000000000000000000000000000000000000000000000008152506040518060400160405280600481526020017f4142494d0000000000000000000000000000000000000000000000000000000081525081600290805190602001906200017c92919062000293565b5080600390805190602001906200019592919062000293565b50620001a66200028e60201b60201c565b600081905550505033600860006101000a81548173ffffffffffffffffffffffffffffffffffffffff021916908373ffffffffffffffffffffffffffffffffffffffff16021790555033600860006101000a81548173ffffffffffffffffffffffffffffffffffffffff021916908373ffffffffffffffffffffffffffffffffffffffff16021790555080600a60006101000a81548173ffffffffffffffffffffffffffffffffffffffff021916908373ffffffffffffffffffffffffffffffffffffffff1602179055506005600f600001819055506064600f600101819055505062000439565b600090565b828054620002a190620003ba565b90600052602060002090601f016020900481019282620002c5576000855562000311565b82601f10620002e057805160ff191683800117855562000311565b8280016001018555821562000311579182015b8281111562000310578251825591602001919060010190620002f3565b5b50905062000320919062000324565b5090565b5b808211156200033f57600081600090555060010162000325565b5090565b60008151905062000354816200041f565b92915050565b6000602082840312156200036d57600080fd5b60006200037d8482850162000343565b91505092915050565b600062000393826200039a565b9050919050565b600073ffffffffffffffffffffffffffffffffffffffff82169050919050565b60006002820490506001821680620003d357607f821691505b60208210811415620003ea57620003e9620003f0565b5b50919050565b7f4e487b7100000000000000000000000000000000000000000000000000000000600052602260045260246000fd5b6200042a8162000386565b81146200043657600080fd5b50565b61583c80620004496000396000f3fe608060405234801561001057600080fd5b50600436106102a05760003560e01c80637f00c7a611610167578063bc08d3b6116100ce578063d777b39111610087578063d777b39114610820578063e2243ad51461083e578063e2edb3981461085c578063e985e9c514610878578063ed92ea93146108a8578063f2fde38b146108c6576102a0565b8063bc08d3b61461075e578063c66828621461077a578063c87b56dd14610798578063cd389164146107c8578063d4ee1d90146107e4578063d5abeb0114610802576102a0565b8063a230c52411610120578063a230c52414610687578063ad31450f146106b7578063aff4b849146106d6578063b547aeda14610706578063b57eba2a14610724578063b88d4fde14610742576102a0565b80637f00c7a6146105c75780638da5cb5b146105e357806391cbd2411461060157806395d89b41146106315780639aa5371b1461064f578063a22cb4651461066b576102a0565b80633060eaaf1161020b5780635c16258d116101c45780635c16258d146104f15780635c975abb146105215780636352211e1461053f57806369105f971461056f57806370a082311461058d57806379ba5097146105bd576102a0565b80633060eaaf14610441578063372a3b821461045f57806337d07ffd1461047d5780633f9681601461049b57806342842e0e146104b957806355f804b3146104d5576102a0565b806318160ddd1161025d57806318160ddd14610379578063239175fc14610397578063239c70ae146103b957806323b872dd146103d757806329213a2f146103f35780632fa9083a14610423576102a0565b806301ffc9a7146102a557806302329a29146102d557806306fdde03146102f1578063081812fc1461030f578063095ea7b31461033f5780631725ced11461035b575b600080fd5b6102bf60048036038101906102ba91906149c0565b6108e2565b6040516102cc9190614eb8565b60405180910390f35b6102ef60048036038101906102ea919061496e565b6109c4565b005b6102f9610a3b565b6040516103069190614f48565b60405180910390f35b61032960048036038101906103249190614a53565b610acd565b6040516103369190614de3565b60405180910390f35b61035960048036038101906103549190614932565b610b49565b005b610363610c54565b6040516103709190614eb8565b60405180910390f35b610381610c67565b60405161038e91906150ca565b60405180910390f35b61039f610c7e565b6040516103b0959493929190614ed3565b60405180910390f35b6103c1610d64565b6040516103ce91906150ca565b60405180910390f35b6103f160048036038101906103ec91906147d8565b610d6a565b005b61040d60048036038101906104089190614773565b610d7a565b60405161041a91906150ca565b60405180910390f35b61042b6111ac565b60405161043891906150ca565b60405180910390f35b6104496111b6565b60405161045691906150ca565b60405180910390f35b6104676115d0565b6040516104749190614f48565b60405180910390f35b61048561165e565b6040516104929190614f48565b60405180910390f35b6104a36116f3565b6040516104b09190614f2d565b60405180910390f35b6104d360048036038101906104ce91906147d8565b611719565b005b6104ef60048036038101906104ea9190614a12565b611739565b005b61050b600480360381019061050691906148de565b6117ad565b60405161051891906150ca565b60405180910390f35b610529611b6a565b6040516105369190614eb8565b60405180910390f35b61055960048036038101906105549190614a53565b611b7d565b6040516105669190614de3565b60405180910390f35b610577611b93565b6040516105849190614de3565b60405180910390f35b6105a760048036038101906105a29190614773565b611bbd565b6040516105b491906150ca565b60405180910390f35b6105c5611c8d565b005b6105e160048036038101906105dc9190614a53565b611e2c565b005b6105eb611e90565b6040516105f89190614de3565b60405180910390f35b61061b60048036038101906106169190614a12565b611eb6565b60405161062891906150ca565b60405180910390f35b61063961228f565b6040516106469190614f48565b60405180910390f35b61066960048036038101906106649190614a53565b612321565b005b610685600480360381019061068091906148a2565b612388565b005b6106a1600480360381019061069c9190614773565b612500565b6040516106ae9190614eb8565b60405180910390f35b6106bf61256a565b6040516106cd92919061510e565b60405180910390f35b6106f060048036038101906106eb9190614773565b61257c565b6040516106fd9190614f48565b60405180910390f35b61070e612650565b60405161071b91906150ca565b60405180910390f35b61072c612d1e565b60405161073991906150ca565b60405180910390f35b61075c60048036038101906107579190614827565b612d30565b005b61077860048036038101906107739190614a12565b612dac565b005b610782612e06565b60405161078f9190614f48565b60405180910390f35b6107b260048036038101906107ad9190614a53565b612e94565b6040516107bf9190614f48565b60405180910390f35b6107e260048036038101906107dd9190614773565b612f3f565b005b6107ec612ff7565b6040516107f99190614de3565b60405180910390f35b61080a61301d565b60405161081791906150ca565b60405180910390f35b610828613023565b60405161083591906150ca565b60405180910390f35b610846613029565b6040516108539190614f48565b60405180910390f35b61087660048036038101906108719190614a53565b613196565b005b610892600480360381019061088d919061479c565b6131fd565b60405161089f9190614eb8565b60405180910390f35b6108b0613291565b6040516108bd91906150ca565b60405180910390f35b6108e060048036038101906108db9190614773565b61329e565b005b60007f80ac58cd000000000000000000000000000000000000000000000000000000007bffffffffffffffffffffffffffffffffffffffffffffffffffffffff1916827bffffffffffffffffffffffffffffffffffffffffffffffffffffffff191614806109ad57507f5b5e139f000000000000000000000000000000000000000000000000000000007bffffffffffffffffffffffffffffffffffffffffffffffffffffffff1916827bffffffffffffffffffffffffffffffffffffffffffffffffffffffff1916145b806109bd57506109bc8261333c565b5b9050919050565b600860009054906101000a900473ffffffffffffffffffffffffffffffffffffffff1673ffffffffffffffffffffffffffffffffffffffff163373ffffffffffffffffffffffffffffffffffffffff1614610a1e57600080fd5b80601760016101000a81548160ff02191690831515021790555050565b606060028054610a4a906153ab565b80601f0160208091040260200160405190810160405280929190818152602001828054610a76906153ab565b8015610ac35780601f10610a9857610100808354040283529160200191610ac3565b820191906000526020600020905b815481529060010190602001808311610aa657829003601f168201915b5050505050905090565b6000610ad8826133a6565b610b0e576040517fcf4700e400000000000000000000000000000000000000000000000000000000815260040160405180910390fd5b6006600083815260200190815260200160002060009054906101000a900473ffffffffffffffffffffffffffffffffffffffff169050919050565b6000610b5482611b7d565b90508073ffffffffffffffffffffffffffffffffffffffff168373ffffffffffffffffffffffffffffffffffffffff161415610bbc576040517f943f7b8c00000000000000000000000000000000000000000000000000000000815260040160405180910390fd5b8073ffffffffffffffffffffffffffffffffffffffff16610bdb6133f4565b73ffffffffffffffffffffffffffffffffffffffff1614158015610c0d5750610c0b81610c066133f4565b6131fd565b155b15610c44576040517fcfb3b94200000000000000000000000000000000000000000000000000000000815260040160405180910390fd5b610c4f8383836133fc565b505050565b601760009054906101000a900460ff1681565b6000610c716134ae565b6001546000540303905090565b600b8060000160009054906101000a900460ff16908060000160019054906101000a900460ff1690806001015490806002018054610cbb906153ab565b80601f0160208091040260200160405190810160405280929190818152602001828054610ce7906153ab565b8015610d345780601f10610d0957610100808354040283529160200191610d34565b820191906000526020600020905b815481529060010190602001808311610d1757829003601f168201915b5050505050908060030160009054906101000a900473ffffffffffffffffffffffffffffffffffffffff16905085565b60145481565b610d758383836134b3565b505050565b6000600860009054906101000a900473ffffffffffffffffffffffffffffffffffffffff1673ffffffffffffffffffffffffffffffffffffffff163373ffffffffffffffffffffffffffffffffffffffff1614610dd657600080fd5b601760019054906101000a900460ff1615610e26576040517f08c379a0000000000000000000000000000000000000000000000000000000008152600401610e1d9061504a565b60405180910390fd5b601760009054906101000a900460ff1615610e76576040517f08c379a0000000000000000000000000000000000000000000000000000000008152600401610e6d90614f8a565b60405180910390fd5b60001515601d60008473ffffffffffffffffffffffffffffffffffffffff1673ffffffffffffffffffffffffffffffffffffffff16815260200190815260200160002060000160009054906101000a900460ff16151514610f0c576040517f08c379a0000000000000000000000000000000000000000000000000000000008152600401610f039061502a565b60405180910390fd5b6000610f16610c67565b9050601354600182610f289190615216565b1115610f69576040517f08c379a0000000000000000000000000000000000000000000000000000000008152600401610f6090614fea565b60405180910390fd5b6001601d60008573ffffffffffffffffffffffffffffffffffffffff1673ffffffffffffffffffffffffffffffffffffffff16815260200190815260200160002060000160006101000a81548160ff0219169083151502179055506000601d60008573ffffffffffffffffffffffffffffffffffffffff1673ffffffffffffffffffffffffffffffffffffffff168152602001908152602001600020600301819055506040518060400160405280600681526020017f6e6f6e616d650000000000000000000000000000000000000000000000000000815250601d60008573ffffffffffffffffffffffffffffffffffffffff1673ffffffffffffffffffffffffffffffffffffffff168152602001908152602001600020600401908051906020019061109792919061447c565b506001601760006101000a81548160ff021916908315150217905550600a60009054906101000a900473ffffffffffffffffffffffffffffffffffffffff1673ffffffffffffffffffffffffffffffffffffffff16637d5aa9a6846040518263ffffffff1660e01b815260040161110e9190614de3565b602060405180830381600087803b15801561112857600080fd5b505af115801561113c573d6000803e3d6000fd5b505050506040513d601f19601f820116820180604052508101906111609190614a7c565b6018819055507ff1d0f8a592bc1469222ef70b725c80d521dbdf14649755dd0ffcbf2464fb10eb83601854604051611199929190614e4a565b60405180910390a1601854915050919050565b6000601154905090565b600060011515600b60000160019054906101000a900460ff1615151480156111f4575060001515600b60000160009054906101000a900460ff161515145b611233576040517f08c379a000000000000000000000000000000000000000000000000000000000815260040161122a9061508a565b60405180910390fd5b60011515601d60003373ffffffffffffffffffffffffffffffffffffffff1673ffffffffffffffffffffffffffffffffffffffff16815260200190815260200160002060000160009054906101000a900460ff161515146112c9576040517f08c379a00000000000000000000000000000000000000000000000000000000081526004016112c090614faa565b60405180910390fd5b601254601d60003373ffffffffffffffffffffffffffffffffffffffff1673ffffffffffffffffffffffffffffffffffffffff168152602001908152602001600020600201541061134f576040517f08c379a0000000000000000000000000000000000000000000000000000000008152600401611346906150aa565b60405180910390fd5b6000601a80549050111561152357600a60009054906101000a900473ffffffffffffffffffffffffffffffffffffffff1673ffffffffffffffffffffffffffffffffffffffff16636a82d9e1600b60030160009054906101000a900473ffffffffffffffffffffffffffffffffffffffff1660195433600f600101546040518563ffffffff1660e01b81526004016113ea9493929190614e73565b602060405180830381600087803b15801561140457600080fd5b505af1158015611418573d6000803e3d6000fd5b505050506040513d601f19601f8201168201806040525081019061143c9190614a7c565b50601a6001601a80549050611451919061529d565b81548110611488577f4e487b7100000000000000000000000000000000000000000000000000000000600052603260045260246000fd5b9060005260206000200160006101000a81549073ffffffffffffffffffffffffffffffffffffffff0219169055601a8054806114ed577f4e487b7100000000000000000000000000000000000000000000000000000000600052603160045260246000fd5b6001900381819060005260206000200160006101000a81549073ffffffffffffffffffffffffffffffffffffffff021916905590555b6000601a80549050141561157c57601a600061153f9190614502565b6000600b60000160006101000a81548160ff0219169083151502179055506000600b60000160016101000a81548160ff0219169083151502179055505b601254601d60003373ffffffffffffffffffffffffffffffffffffffff1673ffffffffffffffffffffffffffffffffffffffff16815260200190815260200160002060020181905550601a80549050905090565b601580546115dd906153ab565b80601f0160208091040260200160405190810160405280929190818152602001828054611609906153ab565b80156116565780601f1061162b57610100808354040283529160200191611656565b820191906000526020600020905b81548152906001019060200180831161163957829003601f168201915b505050505081565b6060600b6002018054611670906153ab565b80601f016020809104026020016040519081016040528092919081815260200182805461169c906153ab565b80156116e95780601f106116be576101008083540402835291602001916116e9565b820191906000526020600020905b8154815290600101906020018083116116cc57829003601f168201915b5050505050905090565b600a60009054906101000a900473ffffffffffffffffffffffffffffffffffffffff1681565b61173483838360405180602001604052806000815250612d30565b505050565b600860009054906101000a900473ffffffffffffffffffffffffffffffffffffffff1673ffffffffffffffffffffffffffffffffffffffff163373ffffffffffffffffffffffffffffffffffffffff161461179357600080fd5b80601590805190602001906117a992919061447c565b5050565b6000601760019054906101000a900460ff16156117ff576040517f08c379a00000000000000000000000000000000000000000000000000000000081526004016117f69061504a565b60405180910390fd5b60011515601d60008573ffffffffffffffffffffffffffffffffffffffff1673ffffffffffffffffffffffffffffffffffffffff16815260200190815260200160002060000160009054906101000a900460ff16151514611895576040517f08c379a000000000000000000000000000000000000000000000000000000000815260040161188c90614f6a565b60405180910390fd5b6000601d60008573ffffffffffffffffffffffffffffffffffffffff1673ffffffffffffffffffffffffffffffffffffffff168152602001908152602001600020600301541461191a576040517f08c379a00000000000000000000000000000000000000000000000000000000081526004016119119061506a565b60405180910390fd5b6000611924610c67565b90506013546001826119369190615216565b1115611977576040517f08c379a000000000000000000000000000000000000000000000000000000000815260040161196e90614fea565b60405180910390fd5b6000819050601c60008673ffffffffffffffffffffffffffffffffffffffff1673ffffffffffffffffffffffffffffffffffffffff16815260200190815260200160002060008154809291906119cc9061540e565b91905055506119dc856001613969565b80601d60008773ffffffffffffffffffffffffffffffffffffffff1673ffffffffffffffffffffffffffffffffffffffff1681526020019081526020016000206003018190555083601d60008773ffffffffffffffffffffffffffffffffffffffff1673ffffffffffffffffffffffffffffffffffffffff1681526020019081526020016000206004019080519060200190611a7992919061447c565b506000601760006101000a81548160ff021916908315150217905550600a60009054906101000a900473ffffffffffffffffffffffffffffffffffffffff1673ffffffffffffffffffffffffffffffffffffffff1663ea3fe69e601854876040518363ffffffff1660e01b8152600401611af49291906150e5565b602060405180830381600087803b158015611b0e57600080fd5b505af1158015611b22573d6000803e3d6000fd5b505050506040513d601f19601f82011682018060405250810190611b469190614997565b5060116000815480929190611b5a9061540e565b9190505550809250505092915050565b601760019054906101000a900460ff1681565b6000611b8882613987565b600001519050919050565b6000600a60009054906101000a900473ffffffffffffffffffffffffffffffffffffffff16905090565b60008073ffffffffffffffffffffffffffffffffffffffff168273ffffffffffffffffffffffffffffffffffffffff161415611c25576040517f8f4eb60400000000000000000000000000000000000000000000000000000000815260040160405180910390fd5b600560008373ffffffffffffffffffffffffffffffffffffffff1673ffffffffffffffffffffffffffffffffffffffff16815260200190815260200160002060000160009054906101000a900467ffffffffffffffff1667ffffffffffffffff169050919050565b600960009054906101000a900473ffffffffffffffffffffffffffffffffffffffff1673ffffffffffffffffffffffffffffffffffffffff163373ffffffffffffffffffffffffffffffffffffffff1614611ce757600080fd5b600960009054906101000a900473ffffffffffffffffffffffffffffffffffffffff1673ffffffffffffffffffffffffffffffffffffffff16600860009054906101000a900473ffffffffffffffffffffffffffffffffffffffff1673ffffffffffffffffffffffffffffffffffffffff167f8be0079c531659141344cd1fd0a4f28419497f9722a3daafe3b4186f6b6457e060405160405180910390a3600960009054906101000a900473ffffffffffffffffffffffffffffffffffffffff16600860006101000a81548173ffffffffffffffffffffffffffffffffffffffff021916908373ffffffffffffffffffffffffffffffffffffffff1602179055506000600960006101000a81548173ffffffffffffffffffffffffffffffffffffffff021916908373ffffffffffffffffffffffffffffffffffffffff160217905550565b600860009054906101000a900473ffffffffffffffffffffffffffffffffffffffff1673ffffffffffffffffffffffffffffffffffffffff163373ffffffffffffffffffffffffffffffffffffffff1614611e8657600080fd5b8060148190555050565b600860009054906101000a900473ffffffffffffffffffffffffffffffffffffffff1681565b6000601760019054906101000a900460ff1615611f08576040517f08c379a0000000000000000000000000000000000000000000000000000000008152600401611eff9061504a565b60405180910390fd5b60001515601d60003373ffffffffffffffffffffffffffffffffffffffff1673ffffffffffffffffffffffffffffffffffffffff16815260200190815260200160002060000160009054906101000a900460ff16151514611f9e576040517f08c379a0000000000000000000000000000000000000000000000000000000008152600401611f959061502a565b60405180910390fd5b60001515600b60000160019054906101000a900460ff16151514611ff7576040517f08c379a0000000000000000000000000000000000000000000000000000000008152600401611fee9061500a565b60405180910390fd5b33600b60030160006101000a81548173ffffffffffffffffffffffffffffffffffffffff021916908373ffffffffffffffffffffffffffffffffffffffff16021790555081600b600201908051906020019061205492919061447c565b506000600b60000160006101000a81548160ff0219169083151502179055506001600b60000160016101000a81548160ff021916908315150217905550600a60009054906101000a900473ffffffffffffffffffffffffffffffffffffffff1673ffffffffffffffffffffffffffffffffffffffff1663eae58b7a336040518263ffffffff1660e01b81526004016120ec9190614de3565b602060405180830381600087803b15801561210657600080fd5b505af115801561211a573d6000803e3d6000fd5b505050506040513d601f19601f8201168201806040525081019061213e9190614a7c565b601981905550601a60006121529190614502565b601260008154809291906121659061540e565b9190505550600a60009054906101000a900473ffffffffffffffffffffffffffffffffffffffff1673ffffffffffffffffffffffffffffffffffffffff16636a82d9e1600b60030160009054906101000a900473ffffffffffffffffffffffffffffffffffffffff1660195433600f600101546040518563ffffffff1660e01b81526004016121f79493929190614e73565b602060405180830381600087803b15801561221157600080fd5b505af1158015612225573d6000803e3d6000fd5b505050506040513d601f19601f820116820180604052508101906122499190614a7c565b507f80e2d0de91ab94c5ddb539b0f826a7ffe6689ec23c97f958c9642dceb0bab5bc3360195460405161227d929190614e4a565b60405180910390a16019549050919050565b60606003805461229e906153ab565b80601f01602080910402602001604051908101604052809291908181526020018280546122ca906153ab565b80156123175780601f106122ec57610100808354040283529160200191612317565b820191906000526020600020905b8154815290600101906020018083116122fa57829003601f168201915b5050505050905090565b600860009054906101000a900473ffffffffffffffffffffffffffffffffffffffff1673ffffffffffffffffffffffffffffffffffffffff163373ffffffffffffffffffffffffffffffffffffffff161461237b57600080fd5b80600f6000018190555050565b6123906133f4565b73ffffffffffffffffffffffffffffffffffffffff168273ffffffffffffffffffffffffffffffffffffffff1614156123f5576040517fb06307db00000000000000000000000000000000000000000000000000000000815260040160405180910390fd5b80600760006124026133f4565b73ffffffffffffffffffffffffffffffffffffffff1673ffffffffffffffffffffffffffffffffffffffff16815260200190815260200160002060008473ffffffffffffffffffffffffffffffffffffffff1673ffffffffffffffffffffffffffffffffffffffff16815260200190815260200160002060006101000a81548160ff0219169083151502179055508173ffffffffffffffffffffffffffffffffffffffff166124af6133f4565b73ffffffffffffffffffffffffffffffffffffffff167f17307eab39ab6107e8899845ad3d59bd9653f200f220920489ca2b5937696c31836040516124f49190614eb8565b60405180910390a35050565b6000601d60008373ffffffffffffffffffffffffffffffffffffffff1673ffffffffffffffffffffffffffffffffffffffff16815260200190815260200160002060000160009054906101000a900460ff16156125605760019050612565565b600090505b919050565b600f8060000154908060010154905082565b6060601d60008373ffffffffffffffffffffffffffffffffffffffff1673ffffffffffffffffffffffffffffffffffffffff16815260200190815260200160002060040180546125cb906153ab565b80601f01602080910402602001604051908101604052809291908181526020018280546125f7906153ab565b80156126445780601f1061261957610100808354040283529160200191612644565b820191906000526020600020905b81548152906001019060200180831161262757829003601f168201915b50505050509050919050565b600060011515600b60000160019054906101000a900460ff16151514801561268e575060001515600b60000160009054906101000a900460ff161515145b6126cd576040517f08c379a00000000000000000000000000000000000000000000000000000000081526004016126c49061508a565b60405180910390fd5b60011515601d60003373ffffffffffffffffffffffffffffffffffffffff1673ffffffffffffffffffffffffffffffffffffffff16815260200190815260200160002060000160009054906101000a900460ff16151514612763576040517f08c379a000000000000000000000000000000000000000000000000000000000815260040161275a90614faa565b60405180910390fd5b601254601d60003373ffffffffffffffffffffffffffffffffffffffff1673ffffffffffffffffffffffffffffffffffffffff16815260200190815260200160002060020154106127e9576040517f08c379a00000000000000000000000000000000000000000000000000000000081526004016127e0906150aa565b60405180910390fd5b601a339080600181540180825580915050600190039060005260206000200160009091909190916101000a81548173ffffffffffffffffffffffffffffffffffffffff021916908373ffffffffffffffffffffffffffffffffffffffff160217905550600a60009054906101000a900473ffffffffffffffffffffffffffffffffffffffff1673ffffffffffffffffffffffffffffffffffffffff16636a82d9e1600b60030160009054906101000a900473ffffffffffffffffffffffffffffffffffffffff1660195433600f600101546040518563ffffffff1660e01b81526004016128d99493929190614e73565b602060405180830381600087803b1580156128f357600080fd5b505af1158015612907573d6000803e3d6000fd5b505050506040513d601f19601f8201168201806040525081019061292b9190614a7c565b50601254601d60003373ffffffffffffffffffffffffffffffffffffffff1673ffffffffffffffffffffffffffffffffffffffff16815260200190815260200160002060020181905550600f60000154601a8054905010612cd557601a60006129949190614502565b6001600b60000160006101000a81548160ff0219169083151502179055506000600b60000160016101000a81548160ff02191690831515021790555060006129da610c67565b90506013546001826129ec9190615216565b1115612a2d576040517f08c379a0000000000000000000000000000000000000000000000000000000008152600401612a2490614fea565b60405180910390fd5b600a60009054906101000a900473ffffffffffffffffffffffffffffffffffffffff1673ffffffffffffffffffffffffffffffffffffffff1663d6fe8fad601954600b60030160009054906101000a900473ffffffffffffffffffffffffffffffffffffffff166040518363ffffffff1660e01b8152600401612ab19291906150e5565b602060405180830381600087803b158015612acb57600080fd5b505af1158015612adf573d6000803e3d6000fd5b505050506040513d601f19601f82011682018060405250810190612b039190614997565b506000601981905550601c6000600b60030160009054906101000a900473ffffffffffffffffffffffffffffffffffffffff1673ffffffffffffffffffffffffffffffffffffffff1673ffffffffffffffffffffffffffffffffffffffff1681526020019081526020016000206000815480929190612b819061540e565b9190505550612bb7600b60030160009054906101000a900473ffffffffffffffffffffffffffffffffffffffff16601454613969565b6001601d6000600b60030160009054906101000a900473ffffffffffffffffffffffffffffffffffffffff1673ffffffffffffffffffffffffffffffffffffffff1673ffffffffffffffffffffffffffffffffffffffff16815260200190815260200160002060000160006101000a81548160ff021916908315150217905550600b600201601d6000600b60030160009054906101000a900473ffffffffffffffffffffffffffffffffffffffff1673ffffffffffffffffffffffffffffffffffffffff1673ffffffffffffffffffffffffffffffffffffffff168152602001908152602001600020600401908054612caf906153ab565b612cba929190614523565b5060116000815480929190612cce9061540e565b9190505550505b7ffe60f7853ab389eb39ce1f7beebdc7a4afcd1dffa7f912fdbf4ea47fb9f0a5ba33601a80549050604051612d0b929190614e4a565b60405180910390a1601a80549050905090565b600080600f6001015490508091505090565b612d3b8484846134b3565b612d5a8373ffffffffffffffffffffffffffffffffffffffff16613c16565b8015612d6f5750612d6d84848484613c39565b155b15612da6576040517fd1a57ed600000000000000000000000000000000000000000000000000000000815260040160405180910390fd5b50505050565b80601d60003373ffffffffffffffffffffffffffffffffffffffff1673ffffffffffffffffffffffffffffffffffffffff1681526020019081526020016000206004019080519060200190612e0292919061447c565b5050565b60168054612e13906153ab565b80601f0160208091040260200160405190810160405280929190818152602001828054612e3f906153ab565b8015612e8c5780601f10612e6157610100808354040283529160200191612e8c565b820191906000526020600020905b815481529060010190602001808311612e6f57829003601f168201915b505050505081565b6060612e9f826133a6565b612ed5576040517fa14c4b5000000000000000000000000000000000000000000000000000000000815260040160405180910390fd5b6000612edf613d99565b9050600081511415612f09576040518060800160405280604381526020016157c460439139612f37565b80612f1384613e2b565b6016604051602001612f2793929190614da7565b6040516020818303038152906040525b915050919050565b600860009054906101000a900473ffffffffffffffffffffffffffffffffffffffff1673ffffffffffffffffffffffffffffffffffffffff163373ffffffffffffffffffffffffffffffffffffffff1614612f9957600080fd5b6000601d60008373ffffffffffffffffffffffffffffffffffffffff1673ffffffffffffffffffffffffffffffffffffffff16815260200190815260200160002060000160006101000a81548160ff02191690831515021790555050565b600960009054906101000a900473ffffffffffffffffffffffffffffffffffffffff1681565b60135481565b60115481565b60606000613035610c67565b90506013546001826130479190615216565b1115613088576040517f08c379a000000000000000000000000000000000000000000000000000000000815260040161307f90614fea565b60405180910390fd5b600081905060006015805461309c906153ab565b80601f01602080910402602001604051908101604052809291908181526020018280546130c8906153ab565b80156131155780601f106130ea57610100808354040283529160200191613115565b820191906000526020600020905b8154815290600101906020018083116130f857829003601f168201915b505050505090506000815111613160576040518060400160405280600481526020017f6e6f6e650000000000000000000000000000000000000000000000000000000081525061318e565b8061316a83613e2b565b601660405160200161317e93929190614da7565b6040516020818303038152906040525b935050505090565b600860009054906101000a900473ffffffffffffffffffffffffffffffffffffffff1673ffffffffffffffffffffffffffffffffffffffff163373ffffffffffffffffffffffffffffffffffffffff16146131f057600080fd5b80600f6001018190555050565b6000600760008473ffffffffffffffffffffffffffffffffffffffff1673ffffffffffffffffffffffffffffffffffffffff16815260200190815260200160002060008373ffffffffffffffffffffffffffffffffffffffff1673ffffffffffffffffffffffffffffffffffffffff16815260200190815260200160002060009054906101000a900460ff16905092915050565b6000601a80549050905090565b600860009054906101000a900473ffffffffffffffffffffffffffffffffffffffff1673ffffffffffffffffffffffffffffffffffffffff163373ffffffffffffffffffffffffffffffffffffffff16146132f857600080fd5b80600960006101000a81548173ffffffffffffffffffffffffffffffffffffffff021916908373ffffffffffffffffffffffffffffffffffffffff16021790555050565b60007f01ffc9a7000000000000000000000000000000000000000000000000000000007bffffffffffffffffffffffffffffffffffffffffffffffffffffffff1916827bffffffffffffffffffffffffffffffffffffffffffffffffffffffff1916149050919050565b6000816133b16134ae565b111580156133c0575060005482105b80156133ed575060046000838152602001908152602001600020600001601c9054906101000a900460ff16155b9050919050565b600033905090565b826006600084815260200190815260200160002060006101000a81548173ffffffffffffffffffffffffffffffffffffffff021916908373ffffffffffffffffffffffffffffffffffffffff160217905550818373ffffffffffffffffffffffffffffffffffffffff168273ffffffffffffffffffffffffffffffffffffffff167f8c5be1e5ebec7d5bd14f71427d1e84f3dd0314c0f7b2291e5b200ac8c7c3b92560405160405180910390a4505050565b600090565b60006134be82613987565b90508373ffffffffffffffffffffffffffffffffffffffff16816000015173ffffffffffffffffffffffffffffffffffffffff1614613529576040517fa114810000000000000000000000000000000000000000000000000000000000815260040160405180910390fd5b60008473ffffffffffffffffffffffffffffffffffffffff1661354a6133f4565b73ffffffffffffffffffffffffffffffffffffffff1614806135795750613578856135736133f4565b6131fd565b5b806135be57506135876133f4565b73ffffffffffffffffffffffffffffffffffffffff166135a684610acd565b73ffffffffffffffffffffffffffffffffffffffff16145b9050806135f7576040517f59c896be00000000000000000000000000000000000000000000000000000000815260040160405180910390fd5b600073ffffffffffffffffffffffffffffffffffffffff168473ffffffffffffffffffffffffffffffffffffffff16141561365e576040517fea553b3400000000000000000000000000000000000000000000000000000000815260040160405180910390fd5b61366b8585856001613fd8565b613677600084876133fc565b6001600560008773ffffffffffffffffffffffffffffffffffffffff1673ffffffffffffffffffffffffffffffffffffffff16815260200190815260200160002060000160008282829054906101000a900467ffffffffffffffff160392506101000a81548167ffffffffffffffff021916908367ffffffffffffffff1602179055506001600560008673ffffffffffffffffffffffffffffffffffffffff1673ffffffffffffffffffffffffffffffffffffffff16815260200190815260200160002060000160008282829054906101000a900467ffffffffffffffff160192506101000a81548167ffffffffffffffff021916908367ffffffffffffffff1602179055506000600460008581526020019081526020016000209050848160000160006101000a81548173ffffffffffffffffffffffffffffffffffffffff021916908373ffffffffffffffffffffffffffffffffffffffff160217905550428160000160146101000a81548167ffffffffffffffff021916908367ffffffffffffffff16021790555060006001850190506000600460008381526020019081526020016000209050600073ffffffffffffffffffffffffffffffffffffffff168160000160009054906101000a900473ffffffffffffffffffffffffffffffffffffffff1673ffffffffffffffffffffffffffffffffffffffff1614156138f75760005482146138f657878160000160006101000a81548173ffffffffffffffffffffffffffffffffffffffff021916908373ffffffffffffffffffffffffffffffffffffffff16021790555084602001518160000160146101000a81548167ffffffffffffffff021916908367ffffffffffffffff1602179055505b5b505050828473ffffffffffffffffffffffffffffffffffffffff168673ffffffffffffffffffffffffffffffffffffffff167fddf252ad1be2c89b69c2b068fc378daa952ba7f163c4a11628f55a4df523b3ef60405160405180910390a46139628585856001614090565b5050505050565b613983828260405180602001604052806000815250614096565b5050565b61398f6145b0565b60008290508061399d6134ae565b111580156139ac575060005481105b15613bdf576000600460008381526020019081526020016000206040518060600160405290816000820160009054906101000a900473ffffffffffffffffffffffffffffffffffffffff1673ffffffffffffffffffffffffffffffffffffffff1673ffffffffffffffffffffffffffffffffffffffff1681526020016000820160149054906101000a900467ffffffffffffffff1667ffffffffffffffff1667ffffffffffffffff16815260200160008201601c9054906101000a900460ff16151515158152505090508060400151613bdd57600073ffffffffffffffffffffffffffffffffffffffff16816000015173ffffffffffffffffffffffffffffffffffffffff1614613ac1578092505050613c11565b5b600115613bdc57818060019003925050600460008381526020019081526020016000206040518060600160405290816000820160009054906101000a900473ffffffffffffffffffffffffffffffffffffffff1673ffffffffffffffffffffffffffffffffffffffff1673ffffffffffffffffffffffffffffffffffffffff1681526020016000820160149054906101000a900467ffffffffffffffff1667ffffffffffffffff1667ffffffffffffffff16815260200160008201601c9054906101000a900460ff1615151515815250509050600073ffffffffffffffffffffffffffffffffffffffff16816000015173ffffffffffffffffffffffffffffffffffffffff1614613bd7578092505050613c11565b613ac2565b5b505b6040517fdf2d9b4200000000000000000000000000000000000000000000000000000000815260040160405180910390fd5b919050565b6000808273ffffffffffffffffffffffffffffffffffffffff163b119050919050565b60008373ffffffffffffffffffffffffffffffffffffffff1663150b7a02613c5f6133f4565b8786866040518563ffffffff1660e01b8152600401613c819493929190614dfe565b602060405180830381600087803b158015613c9b57600080fd5b505af1925050508015613ccc57506040513d601f19601f82011682018060405250810190613cc991906149e9565b60015b613d46573d8060008114613cfc576040519150601f19603f3d011682016040523d82523d6000602084013e613d01565b606091505b50600081511415613d3e576040517fd1a57ed600000000000000000000000000000000000000000000000000000000815260040160405180910390fd5b805181602001fd5b63150b7a0260e01b7bffffffffffffffffffffffffffffffffffffffffffffffffffffffff1916817bffffffffffffffffffffffffffffffffffffffffffffffffffffffff191614915050949350505050565b606060158054613da8906153ab565b80601f0160208091040260200160405190810160405280929190818152602001828054613dd4906153ab565b8015613e215780601f10613df657610100808354040283529160200191613e21565b820191906000526020600020905b815481529060010190602001808311613e0457829003601f168201915b5050505050905090565b60606000821415613e73576040518060400160405280600181526020017f30000000000000000000000000000000000000000000000000000000000000008152509050613fd3565b600082905060005b60008214613ea5578080613e8e9061540e565b915050600a82613e9e919061526c565b9150613e7b565b60008167ffffffffffffffff811115613ee7577f4e487b7100000000000000000000000000000000000000000000000000000000600052604160045260246000fd5b6040519080825280601f01601f191660200182016040528015613f195781602001600182028036833780820191505090505b5090505b60008514613fcc57600182613f32919061529d565b9150600a85613f419190615457565b6030613f4d9190615216565b60f81b818381518110613f89577f4e487b7100000000000000000000000000000000000000000000000000000000600052603260045260246000fd5b60200101907effffffffffffffffffffffffffffffffffffffffffffffffffffffffffffff1916908160001a905350600a85613fc5919061526c565b9450613f1d565b8093505050505b919050565b600073ffffffffffffffffffffffffffffffffffffffff168473ffffffffffffffffffffffffffffffffffffffff16148061403f5750600073ffffffffffffffffffffffffffffffffffffffff168373ffffffffffffffffffffffffffffffffffffffff16145b61407e576040517f08c379a000000000000000000000000000000000000000000000000000000000815260040161407590614fca565b60405180910390fd5b61408a848484846140a8565b50505050565b50505050565b6140a383838360016140ae565b505050565b50505050565b600080549050600073ffffffffffffffffffffffffffffffffffffffff168573ffffffffffffffffffffffffffffffffffffffff16141561411b576040517f2e07630000000000000000000000000000000000000000000000000000000000815260040160405180910390fd5b6000841415614156576040517fb562e8dd00000000000000000000000000000000000000000000000000000000815260040160405180910390fd5b6141636000868387613fd8565b83600560008773ffffffffffffffffffffffffffffffffffffffff1673ffffffffffffffffffffffffffffffffffffffff16815260200190815260200160002060000160008282829054906101000a900467ffffffffffffffff160192506101000a81548167ffffffffffffffff021916908367ffffffffffffffff16021790555083600560008773ffffffffffffffffffffffffffffffffffffffff1673ffffffffffffffffffffffffffffffffffffffff16815260200190815260200160002060000160088282829054906101000a900467ffffffffffffffff160192506101000a81548167ffffffffffffffff021916908367ffffffffffffffff160217905550846004600083815260200190815260200160002060000160006101000a81548173ffffffffffffffffffffffffffffffffffffffff021916908373ffffffffffffffffffffffffffffffffffffffff160217905550426004600083815260200190815260200160002060000160146101000a81548167ffffffffffffffff021916908367ffffffffffffffff16021790555060008190506000858201905083801561432d575061432c8773ffffffffffffffffffffffffffffffffffffffff16613c16565b5b156143f3575b818773ffffffffffffffffffffffffffffffffffffffff16600073ffffffffffffffffffffffffffffffffffffffff167fddf252ad1be2c89b69c2b068fc378daa952ba7f163c4a11628f55a4df523b3ef60405160405180910390a46143a26000888480600101955088613c39565b6143d8576040517fd1a57ed600000000000000000000000000000000000000000000000000000000815260040160405180910390fd5b808214156143335782600054146143ee57600080fd5b61445f565b5b818060010192508773ffffffffffffffffffffffffffffffffffffffff16600073ffffffffffffffffffffffffffffffffffffffff167fddf252ad1be2c89b69c2b068fc378daa952ba7f163c4a11628f55a4df523b3ef60405160405180910390a4808214156143f4575b8160008190555050506144756000868387614090565b5050505050565b828054614488906153ab565b90600052602060002090601f0160209004810192826144aa57600085556144f1565b82601f106144c357805160ff19168380011785556144f1565b828001600101855582156144f1579182015b828111156144f05782518255916020019190600101906144d5565b5b5090506144fe91906145f3565b5090565b508054600082559060005260206000209081019061452091906145f3565b50565b82805461452f906153ab565b90600052602060002090601f016020900481019282614551576000855561459f565b82601f10614562578054855561459f565b8280016001018555821561459f57600052602060002091601f016020900482015b8281111561459e578254825591600101919060010190614583565b5b5090506145ac91906145f3565b5090565b6040518060600160405280600073ffffffffffffffffffffffffffffffffffffffff168152602001600067ffffffffffffffff1681526020016000151581525090565b5b8082111561460c5760008160009055506001016145f4565b5090565b600061462361461e8461515c565b615137565b90508281526020810184848401111561463b57600080fd5b614646848285615369565b509392505050565b600061466161465c8461518d565b615137565b90508281526020810184848401111561467957600080fd5b614684848285615369565b509392505050565b60008135905061469b81615767565b92915050565b6000813590506146b08161577e565b92915050565b6000815190506146c58161577e565b92915050565b6000813590506146da81615795565b92915050565b6000815190506146ef81615795565b92915050565b600082601f83011261470657600080fd5b8135614716848260208601614610565b91505092915050565b600082601f83011261473057600080fd5b813561474084826020860161464e565b91505092915050565b600081359050614758816157ac565b92915050565b60008151905061476d816157ac565b92915050565b60006020828403121561478557600080fd5b60006147938482850161468c565b91505092915050565b600080604083850312156147af57600080fd5b60006147bd8582860161468c565b92505060206147ce8582860161468c565b9150509250929050565b6000806000606084860312156147ed57600080fd5b60006147fb8682870161468c565b935050602061480c8682870161468c565b925050604061481d86828701614749565b9150509250925092565b6000806000806080858703121561483d57600080fd5b600061484b8782880161468c565b945050602061485c8782880161468c565b935050604061486d87828801614749565b925050606085013567ffffffffffffffff81111561488a57600080fd5b614896878288016146f5565b91505092959194509250565b600080604083850312156148b557600080fd5b60006148c38582860161468c565b92505060206148d4858286016146a1565b9150509250929050565b600080604083850312156148f157600080fd5b60006148ff8582860161468c565b925050602083013567ffffffffffffffff81111561491c57600080fd5b6149288582860161471f565b9150509250929050565b6000806040838503121561494557600080fd5b60006149538582860161468c565b925050602061496485828601614749565b9150509250929050565b60006020828403121561498057600080fd5b600061498e848285016146a1565b91505092915050565b6000602082840312156149a957600080fd5b60006149b7848285016146b6565b91505092915050565b6000602082840312156149d257600080fd5b60006149e0848285016146cb565b91505092915050565b6000602082840312156149fb57600080fd5b6000614a09848285016146e0565b91505092915050565b600060208284031215614a2457600080fd5b600082013567ffffffffffffffff811115614a3e57600080fd5b614a4a8482850161471f565b91505092915050565b600060208284031215614a6557600080fd5b6000614a7384828501614749565b91505092915050565b600060208284031215614a8e57600080fd5b6000614a9c8482850161475e565b91505092915050565b614aae816152d1565b82525050565b614abd816152e3565b82525050565b6000614ace826151d3565b614ad881856151e9565b9350614ae8818560208601615378565b614af181615544565b840191505092915050565b614b0581615345565b82525050565b6000614b16826151de565b614b2081856151fa565b9350614b30818560208601615378565b614b3981615544565b840191505092915050565b6000614b4f826151de565b614b59818561520b565b9350614b69818560208601615378565b80840191505092915050565b60008154614b82816153ab565b614b8c818661520b565b94506001821660008114614ba75760018114614bb857614beb565b60ff19831686528186019350614beb565b614bc1856151be565b60005b83811015614be357815481890152600182019150602081019050614bc4565b838801955050505b50505092915050565b6000614c016019836151fa565b9150614c0c82615555565b602082019050919050565b6000614c246015836151fa565b9150614c2f8261557e565b602082019050919050565b6000614c476019836151fa565b9150614c52826155a7565b602082019050919050565b6000614c6a6018836151fa565b9150614c75826155d0565b602082019050919050565b6000614c8d6016836151fa565b9150614c98826155f9565b602082019050919050565b6000614cb06027836151fa565b9150614cbb82615622565b604082019050919050565b6000614cd3601b836151fa565b9150614cde82615671565b602082019050919050565b6000614cf66016836151fa565b9150614d018261569a565b602082019050919050565b6000614d19601c836151fa565b9150614d24826156c3565b602082019050919050565b6000614d3c6017836151fa565b9150614d47826156ec565b602082019050919050565b6000614d5f601c836151fa565b9150614d6a82615715565b602082019050919050565b6000614d8260018361520b565b9150614d8d8261573e565b600182019050919050565b614da18161533b565b82525050565b6000614db38286614b44565b9150614dbe82614d75565b9150614dca8285614b44565b9150614dd68284614b75565b9150819050949350505050565b6000602082019050614df86000830184614aa5565b92915050565b6000608082019050614e136000830187614aa5565b614e206020830186614aa5565b614e2d6040830185614d98565b8181036060830152614e3f8184614ac3565b905095945050505050565b6000604082019050614e5f6000830185614aa5565b614e6c6020830184614d98565b9392505050565b6000608082019050614e886000830187614aa5565b614e956020830186614d98565b614ea26040830185614aa5565b614eaf6060830184614d98565b95945050505050565b6000602082019050614ecd6000830184614ab4565b92915050565b600060a082019050614ee86000830188614ab4565b614ef56020830187614ab4565b614f026040830186614d98565b8181036060830152614f148185614b0b565b9050614f236080830184614aa5565b9695505050505050565b6000602082019050614f426000830184614afc565b92915050565b60006020820190508181036000830152614f628184614b0b565b905092915050565b60006020820190508181036000830152614f8381614bf4565b9050919050565b60006020820190508181036000830152614fa381614c17565b9050919050565b60006020820190508181036000830152614fc381614c3a565b9050919050565b60006020820190508181036000830152614fe381614c5d565b9050919050565b6000602082019050818103600083015261500381614c80565b9050919050565b6000602082019050818103600083015261502381614ca3565b9050919050565b6000602082019050818103600083015261504381614cc6565b9050919050565b6000602082019050818103600083015261506381614ce9565b9050919050565b6000602082019050818103600083015261508381614d0c565b9050919050565b600060208201905081810360008301526150a381614d2f565b9050919050565b600060208201905081810360008301526150c381614d52565b9050919050565b60006020820190506150df6000830184614d98565b92915050565b60006040820190506150fa6000830185614d98565b6151076020830184614aa5565b9392505050565b60006040820190506151236000830185614d98565b6151306020830184614d98565b9392505050565b6000615141615152565b905061514d82826153dd565b919050565b6000604051905090565b600067ffffffffffffffff82111561517757615176615515565b5b61518082615544565b9050602081019050919050565b600067ffffffffffffffff8211156151a8576151a7615515565b5b6151b182615544565b9050602081019050919050565b60008190508160005260206000209050919050565b600081519050919050565b600081519050919050565b600082825260208201905092915050565b600082825260208201905092915050565b600081905092915050565b60006152218261533b565b915061522c8361533b565b9250827fffffffffffffffffffffffffffffffffffffffffffffffffffffffffffffffff0382111561526157615260615488565b5b828201905092915050565b60006152778261533b565b91506152828361533b565b925082615292576152916154b7565b5b828204905092915050565b60006152a88261533b565b91506152b38361533b565b9250828210156152c6576152c5615488565b5b828203905092915050565b60006152dc8261531b565b9050919050565b60008115159050919050565b60007fffffffff0000000000000000000000000000000000000000000000000000000082169050919050565b600073ffffffffffffffffffffffffffffffffffffffff82169050919050565b6000819050919050565b600061535082615357565b9050919050565b60006153628261531b565b9050919050565b82818337600083830152505050565b60005b8381101561539657808201518184015260208101905061537b565b838111156153a5576000848401525b50505050565b600060028204905060018216806153c357607f821691505b602082108114156153d7576153d66154e6565b5b50919050565b6153e682615544565b810181811067ffffffffffffffff8211171561540557615404615515565b5b80604052505050565b60006154198261533b565b91507fffffffffffffffffffffffffffffffffffffffffffffffffffffffffffffffff82141561544c5761544b615488565b5b600182019050919050565b60006154628261533b565b915061546d8361533b565b92508261547d5761547c6154b7565b5b828206905092915050565b7f4e487b7100000000000000000000000000000000000000000000000000000000600052601160045260246000fd5b7f4e487b7100000000000000000000000000000000000000000000000000000000600052601260045260246000fd5b7f4e487b7100000000000000000000000000000000000000000000000000000000600052602260045260246000fd5b7f4e487b7100000000000000000000000000000000000000000000000000000000600052604160045260246000fd5b6000601f19601f8301169050919050565b7f6d656d626572206e65656420746f206265206163746976656400000000000000600082015250565b7f736f6d656f6e652069732067656e65736973696e670000000000000000000000600082015250565b7f73656e646572206e65656420746f206265206163746976656400000000000000600082015250565b7f6e6674206973206e6f74207472616e736665727261626c650000000000000000600082015250565b7f6d6178204e4654206c696d697420657863656564656400000000000000000000600082015250565b7f736f6d656f6e65206973206170706c79696e6720746865206d656d6265722c2060008201527f70656e64696e6700000000000000000000000000000000000000000000000000602082015250565b7f6d656d626572206e65656420746f20626520696e616374697665640000000000600082015250565b7f74686520636f6e74726163742069732070617573656400000000000000000000600082015250565b7f6d656d6265722068617320616c7265616479206265206d696e74656400000000600082015250565b7f6e6f206170706c79696e67204e46542072657175657374000000000000000000600082015250565b7f796f7520616c726561647920737061776e65642074686973204e465400000000600082015250565b7f2f00000000000000000000000000000000000000000000000000000000000000600082015250565b615770816152d1565b811461577b57600080fd5b50565b615787816152e3565b811461579257600080fd5b50565b61579e816152ef565b81146157a957600080fd5b50565b6157b58161533b565b81146157c057600080fd5b5056fe697066733a2f2f516d53597a5862754d5051436f474e775357593533366d7847357763515654674d4458696e596b5335436e7937622f6d657461646174612e6a736f6ea26469706673582212200a14f80697663cf97a8f16910462aa132dddec43afc0f5c0b8774a93548a012364736f6c63430008040033697066733a2f2f516d53597a5862754d5051436f474e775357593533366d7847357763515654674d4458696e596b5335436e793762",
  "linkReferences": {},
  "deployedLinkReferences": {}
}